{
  "contractName": "GasTesting",
  "abi": [
    {
      "inputs": [],
      "name": "Check",
      "outputs": [],
      "stateMutability": "nonpayable",
      "type": "function"
    }
  ],
  "bytecode": "0x608060405234801561001057600080fd5b5060d08061001f6000396000f3fe6080604052348015600f57600080fd5b506004361060285760003560e01c80632de4ca5914602d575b600080fd5b60336035565b005b60005b6064811215606a5760005b6064811215605a5781605381606d565b9250506043565b5080606381606d565b9150506038565b50565b60006001600160ff1b03821415609357634e487b7160e01b600052601160045260246000fd5b506001019056fea26469706673582212209baee057dc9cdbe05572af007f44510aa985ff16332c4154f9fc25c85818faf164736f6c63430008090033",
  "immutableReferences": {},
  "source": "pragma solidity 0.8.9;\r\n\r\ncontract GasTesting {\r\n\r\n\r\nfunction Check() public {\r\n\r\nfor (int i = 0 ; i < 100 ; i++ )\r\n\r\n\r\nfor (int j = 0 ; j < 100 ; i++){\r\n\r\nif (1==1){\r\nuint assignn = 1;}\r\n\r\n\r\n\r\n}\r\n\r\n\r\n\r\n\r\n\r\n}\r\n\r\n\r\n\r\n\r\n\r\n\r\n\r\n\r\n\r\n\r\n\r\n\r\n\r\n}",
  "sourcePath": "D:\\projects\\Bounty_1_truffle\\contracts\\GasTesting.sol",
  "compiler": {
    "name": "solc",
    "version": "0.8.9+commit.e5eed63a.Emscripten.clang"
  },
  "schemaVersion": "3.4.5",
  "updatedAt": "2022-03-25T12:14:29.347Z",
  "devdoc": {
    "kind": "dev",
    "methods": {},
    "version": 1
  },
  "userdoc": {
    "kind": "user",
    "methods": {},
    "version": 1
  }
}