{
  "contractName": "TradeCenter",
  "abi": [
    {
      "inputs": [],
      "stateMutability": "nonpayable",
      "type": "constructor"
    },
    {
      "stateMutability": "payable",
      "type": "receive"
    },
    {
      "inputs": [],
      "name": "getLatestPrice",
      "outputs": [
        {
          "internalType": "int256",
          "name": "",
          "type": "int256"
        }
      ],
      "stateMutability": "view",
      "type": "function"
    },
    {
      "inputs": [],
      "name": "getDaiBalance",
      "outputs": [
        {
          "internalType": "uint256",
          "name": "",
          "type": "uint256"
        }
      ],
      "stateMutability": "view",
      "type": "function"
    },
    {
      "inputs": [],
      "name": "getWETHBalance",
      "outputs": [
        {
          "internalType": "uint256",
          "name": "",
          "type": "uint256"
        }
      ],
      "stateMutability": "view",
      "type": "function"
    },
    {
      "inputs": [],
      "name": "getUSDTBalance",
      "outputs": [
        {
          "internalType": "uint256",
          "name": "",
          "type": "uint256"
        }
      ],
      "stateMutability": "view",
      "type": "function"
    },
    {
      "inputs": [
        {
          "internalType": "address",
          "name": "_tokenIn",
          "type": "address"
        },
        {
          "internalType": "address",
          "name": "_tokenOut",
          "type": "address"
        },
        {
          "internalType": "uint256",
          "name": "_amountIn",
          "type": "uint256"
        },
        {
          "internalType": "uint256",
          "name": "_amountOutMin",
          "type": "uint256"
        },
        {
          "internalType": "address",
          "name": "_to",
          "type": "address"
        }
      ],
      "name": "swap",
      "outputs": [],
      "stateMutability": "nonpayable",
      "type": "function"
    },
    {
      "inputs": [
        {
          "internalType": "address",
          "name": "_tokenIn",
          "type": "address"
        },
        {
          "internalType": "address",
          "name": "_tokenOut",
          "type": "address"
        },
        {
          "internalType": "uint256",
          "name": "_amountIn",
          "type": "uint256"
        },
        {
          "internalType": "uint256",
          "name": "_amountOutMin",
          "type": "uint256"
        }
      ],
      "name": "simpleswap",
      "outputs": [
        {
          "internalType": "uint256[]",
          "name": "amounts",
          "type": "uint256[]"
        }
      ],
      "stateMutability": "nonpayable",
      "type": "function"
    },
    {
      "inputs": [
        {
          "internalType": "address",
          "name": "_tokenIn",
          "type": "address"
        },
        {
          "internalType": "address",
          "name": "_tokenOut",
          "type": "address"
        },
        {
          "internalType": "uint256",
          "name": "_amountIn",
          "type": "uint256"
        }
      ],
      "name": "getAmountOutMin",
      "outputs": [
        {
          "internalType": "uint256",
          "name": "",
          "type": "uint256"
        }
      ],
      "stateMutability": "view",
      "type": "function"
    },
    {
      "inputs": [
        {
          "internalType": "address",
          "name": "_tokenIn",
          "type": "address"
        },
        {
          "internalType": "uint256",
          "name": "_amountIn",
          "type": "uint256"
        }
      ],
      "name": "depositerc20",
      "outputs": [],
      "stateMutability": "nonpayable",
      "type": "function"
    }
  ],
  "bytecode": "0x608060405234801561001057600080fd5b50600080546001600160a01b031916735f4ec3df9cbd43714fe2740f5e3616155c5b8419179055611084806100466000396000f3fe60806040526004361061007e5760003560e01c80638e15f4731161004e5780638e15f4731461011457806393b6a95a146101295780639785fac81461014b578063d5bcb9b51461016057600080fd5b8062cbb73b1461008a5780633c50eec1146100b25780634f0238b8146100d25780635ddc916a146100ff57600080fd5b3661008557005b600080fd5b34801561009657600080fd5b5061009f610180565b6040519081526020015b60405180910390f35b3480156100be57600080fd5b5061009f6100cd366004610c9b565b61020e565b3480156100de57600080fd5b506100f26100ed366004610cd7565b610481565b6040516100a99190610d19565b34801561010b57600080fd5b5061009f610767565b34801561012057600080fd5b5061009f6107a3565b34801561013557600080fd5b50610149610144366004610d5d565b61083f565b005b34801561015757600080fd5b5061009f6108ca565b34801561016c57600080fd5b5061014961017b366004610d87565b610906565b6040516370a0823160e01b8152306004820152600090819073c02aaa39b223fe8d0a0e5c4f27ead9083c756cc2906370a08231906024015b60206040518083038186803b1580156101d057600080fd5b505afa1580156101e4573d6000803e3d6000fd5b505050506040513d601f19601f820116820180604052508101906102089190610dde565b92915050565b600060606001600160a01b03851673c02aaa39b223fe8d0a0e5c4f27ead9083c756cc2148061025957506001600160a01b03841673c02aaa39b223fe8d0a0e5c4f27ead9083c756cc2145b156102eb576040805160028082526060820183529091602083019080368337019050509050848160008151811061029257610292610e0d565b60200260200101906001600160a01b031690816001600160a01b03168152505083816001815181106102c6576102c6610e0d565b60200260200101906001600160a01b031690816001600160a01b0316815250506103bd565b604080516003808252608082019092529060208201606080368337019050509050848160008151811061032057610320610e0d565b60200260200101906001600160a01b031690816001600160a01b03168152505073c02aaa39b223fe8d0a0e5c4f27ead9083c756cc28160018151811061036857610368610e0d565b60200260200101906001600160a01b031690816001600160a01b031681525050838160028151811061039c5761039c610e0d565b60200260200101906001600160a01b031690816001600160a01b0316815250505b60405163d06ca61f60e01b8152600090737a250d5630b4cf539739df2c5dacb4c659f2488d9063d06ca61f906103f99087908690600401610e67565b60006040518083038186803b15801561041157600080fd5b505afa158015610425573d6000803e3d6000fd5b505050506040513d6000823e601f3d908101601f1916820160405261044d9190810190610e88565b9050806001835161045e9190610f5c565b8151811061046e5761046e610e0d565b6020026020010151925050509392505050565b60405163095ea7b360e01b8152737a250d5630b4cf539739df2c5dacb4c659f2488d6004820152602481018390526060906001600160a01b0386169063095ea7b390604401602060405180830381600087803b1580156104e057600080fd5b505af11580156104f4573d6000803e3d6000fd5b505050506040513d601f19601f820116820180604052508101906105189190610f73565b504260606001600160a01b03871673c02aaa39b223fe8d0a0e5c4f27ead9083c756cc2148061056357506001600160a01b03861673c02aaa39b223fe8d0a0e5c4f27ead9083c756cc2145b156105f5576040805160028082526060820183529091602083019080368337019050509050868160008151811061059c5761059c610e0d565b60200260200101906001600160a01b031690816001600160a01b03168152505085816001815181106105d0576105d0610e0d565b60200260200101906001600160a01b031690816001600160a01b0316815250506106c7565b604080516003808252608082019092529060208201606080368337019050509050868160008151811061062a5761062a610e0d565b60200260200101906001600160a01b031690816001600160a01b03168152505073c02aaa39b223fe8d0a0e5c4f27ead9083c756cc28160018151811061067257610672610e0d565b60200260200101906001600160a01b031690816001600160a01b03168152505085816002815181106106a6576106a6610e0d565b60200260200101906001600160a01b031690816001600160a01b0316815250505b6040516338ed173960e01b8152737a250d5630b4cf539739df2c5dacb4c659f2488d906338ed1739906107069088908890869030904290600401610f9c565b600060405180830381600087803b15801561072057600080fd5b505af1158015610734573d6000803e3d6000fd5b505050506040513d6000823e601f3d908101601f1916820160405261075c9190810190610e88565b979650505050505050565b6040516370a0823160e01b8152306004820152600090819073111111111117dc0aa78b770fa6a738034120c302906370a08231906024016101b8565b60008060008060008060008054906101000a90046001600160a01b03166001600160a01b031663feaf968c6040518163ffffffff1660e01b815260040160a06040518083038186803b1580156107f857600080fd5b505afa15801561080c573d6000803e3d6000fd5b505050506040513d601f19601f820116820180604052508101906108309190610ff2565b50919998505050505050505050565b6040516323b872dd60e01b8152336004820152306024820152604481018290526001600160a01b038316906323b872dd90606401602060405180830381600087803b15801561088d57600080fd5b505af11580156108a1573d6000803e3d6000fd5b505050506040513d601f19601f820116820180604052508101906108c59190610f73565b505050565b6040516370a0823160e01b81523060048201526000908190736b175474e89094c44da98b954eedeac495271d0f906370a08231906024016101b8565b6040516323b872dd60e01b8152336004820152306024820152604481018490526001600160a01b038616906323b872dd90606401602060405180830381600087803b15801561095457600080fd5b505af1158015610968573d6000803e3d6000fd5b505050506040513d601f19601f8201168201806040525081019061098c9190610f73565b5060405163095ea7b360e01b8152737a250d5630b4cf539739df2c5dacb4c659f2488d6004820152602481018490526001600160a01b0386169063095ea7b390604401602060405180830381600087803b1580156109e957600080fd5b505af11580156109fd573d6000803e3d6000fd5b505050506040513d601f19601f82011682018060405250810190610a219190610f73565b506000610a3142620186a0611036565b905060606001600160a01b03871673c02aaa39b223fe8d0a0e5c4f27ead9083c756cc21480610a7c57506001600160a01b03861673c02aaa39b223fe8d0a0e5c4f27ead9083c756cc2145b15610b0e5760408051600280825260608201835290916020830190803683370190505090508681600081518110610ab557610ab5610e0d565b60200260200101906001600160a01b031690816001600160a01b0316815250508581600181518110610ae957610ae9610e0d565b60200260200101906001600160a01b031690816001600160a01b031681525050610be0565b6040805160038082526080820190925290602082016060803683370190505090508681600081518110610b4357610b43610e0d565b60200260200101906001600160a01b031690816001600160a01b03168152505073c02aaa39b223fe8d0a0e5c4f27ead9083c756cc281600181518110610b8b57610b8b610e0d565b60200260200101906001600160a01b031690816001600160a01b0316815250508581600281518110610bbf57610bbf610e0d565b60200260200101906001600160a01b031690816001600160a01b0316815250505b6040516338ed173960e01b8152737a250d5630b4cf539739df2c5dacb4c659f2488d906338ed173990610c1f9088908890869089908990600401610f9c565b600060405180830381600087803b158015610c3957600080fd5b505af1158015610c4d573d6000803e3d6000fd5b505050506040513d6000823e601f3d908101601f19168201604052610c759190810190610e88565b5050505050505050565b80356001600160a01b0381168114610c9657600080fd5b919050565b600080600060608486031215610cb057600080fd5b610cb984610c7f565b9250610cc760208501610c7f565b9150604084013590509250925092565b60008060008060808587031215610ced57600080fd5b610cf685610c7f565b9350610d0460208601610c7f565b93969395505050506040820135916060013590565b6020808252825182820181905260009190848201906040850190845b81811015610d5157835183529284019291840191600101610d35565b50909695505050505050565b60008060408385031215610d7057600080fd5b610d7983610c7f565b946020939093013593505050565b600080600080600060a08688031215610d9f57600080fd5b610da886610c7f565b9450610db660208701610c7f565b93506040860135925060608601359150610dd260808701610c7f565b90509295509295909350565b600060208284031215610df057600080fd5b5051919050565b634e487b7160e01b600052604160045260246000fd5b634e487b7160e01b600052603260045260246000fd5b600081518084526020808501945080840160005b83811015610e5c5781516001600160a01b031687529582019590820190600101610e37565b509495945050505050565b828152604060208201526000610e806040830184610e23565b949350505050565b60006020808385031215610e9b57600080fd5b825167ffffffffffffffff80821115610eb357600080fd5b818501915085601f830112610ec757600080fd5b815181811115610ed957610ed9610df7565b8060051b604051601f19603f83011681018181108582111715610efe57610efe610df7565b604052918252848201925083810185019188831115610f1c57600080fd5b938501935b82851015610f3a57845184529385019392850192610f21565b98975050505050505050565b634e487b7160e01b600052601160045260246000fd5b600082821015610f6e57610f6e610f46565b500390565b600060208284031215610f8557600080fd5b81518015158114610f9557600080fd5b9392505050565b85815284602082015260a060408201526000610fbb60a0830186610e23565b6001600160a01b0394909416606083015250608001529392505050565b805169ffffffffffffffffffff81168114610c9657600080fd5b600080600080600060a0868803121561100a57600080fd5b61101386610fd8565b9450602086015193506040860151925060608601519150610dd260808701610fd8565b6000821982111561104957611049610f46565b50019056fea2646970667358221220cb9b235561f77c6defb3d6c247579c98ce6a40cd14debbfd94d9949361ce66a664736f6c63430008090033",
  "immutableReferences": {},
  "source": "pragma solidity 0.8.9;\r\nimport \"./AggregatorV3Interface.sol\";\r\nimport \"@openzeppelin/contracts/token/ERC20/IERC20.sol\";\r\n//import \"@chainlink/contracts/src/v0.8/interfaces/AggregatorV3Interface.sol\";\r\n\r\ninterface IUniswapV2Router {\r\n  function getAmountsOut(uint256 amountIn, address[] memory path)\r\n    external\r\n    view\r\n    returns (uint256[] memory amounts);\r\n  \r\n  function swapExactTokensForTokens(\r\n  \r\n    //amount of tokens we are sending in\r\n    uint256 amountIn,\r\n    //the minimum amount of tokens we want out of the trade\r\n    uint256 amountOutMin,\r\n    //list of token addresses we are going to trade in.  this is necessary to calculate amounts\r\n    address[] calldata path,\r\n    //this is the address we are going to send the output tokens to\r\n    address to,\r\n    //the last time that the trade is valid for\r\n    uint256 deadline\r\n  ) external returns (uint256[] memory amounts);\r\n}\r\n\r\ninterface IUniswapV2Pair {\r\n  function token0() external view returns (address);\r\n  function token1() external view returns (address);\r\n  function swap(\r\n    uint256 amount0Out,\r\n    uint256 amount1Out,\r\n    address to,\r\n    bytes calldata data\r\n  ) external;\r\n}\r\n\r\ninterface IUniswapV2Factory {\r\n  function getPair(address token0, address token1) external returns (address);\r\n}\r\n\r\n\r\n\r\n\r\n\r\n/*interface IERC20 {\r\n    function totalSupply() external view returns (uint);\r\n    function balanceOf(address account) external view returns (uint);\r\n    function transfer(address recipient, uint amount) external returns (bool);\r\n    function allowance(address owner, address spender) external view returns (uint);\r\n    function approve(address spender, uint amount) external returns (bool);\r\n    function transferFrom(\r\n        address sender,\r\n        address recipient,\r\n        uint amount\r\n    ) external returns (bool);\r\n    event Transfer(address indexed from, address indexed to, uint value);\r\n    event Approval(address indexed owner, address indexed spender, uint value);\r\n}*/\r\n\r\n\r\n\r\ncontract TradeCenter {\r\n\r\n    AggregatorV3Interface internal priceFeed;\r\n     address internal constant UNISWAP_V2_ROUTER = 0x7a250d5630B4cF539739dF2C5dAcb4c659F2488D;\r\n    \r\n    //address of WETH token.  This is needed because some times it is better to trade through WETH.  \r\n    //you might get a better price using WETH.  \r\n    //example trading from token A to WETH then WETH to token B might result in a better price\r\n    address internal constant WETH = 0xC02aaA39b223FE8D0A0e5C4F27eAD9083C756Cc2;\r\n\r\n    \r\n\r\n    /**\r\n     * Network: Kovan\r\n     * Aggregator: ETH/USD\r\n     * Address: 0x9326BFA02ADD2366b30bacB125260Af641031331\r\n     */\r\n    constructor() {\r\n        priceFeed = AggregatorV3Interface(0x5f4eC3Df9cbd43714FE2740f5E3616155c5b8419);\r\n    }\r\n\r\n    /**\r\n     * Returns the latest price\r\n     */\r\n\r\n    function getLatestPrice() public view returns (int) {\r\n        (\r\n            uint80 roundID, \r\n            int price,\r\n            uint startedAt,\r\n            uint timeStamp,\r\n            uint80 answeredInRound\r\n        ) = priceFeed.latestRoundData();\r\n        return price;\r\n    }\r\n\r\n  \r\n\r\nfunction getDaiBalance () public view returns (uint){\r\nuint balance;\r\nbalance = IERC20(0x111111111117dC0aa78b770fA6A738034120C302).balanceOf(address(this));\r\nreturn balance;\r\n    }\r\n\r\n\r\nfunction getWETHBalance () public view returns (uint){\r\nuint balance;\r\nbalance = IERC20(0xC02aaA39b223FE8D0A0e5C4F27eAD9083C756Cc2).balanceOf(address(this));\r\n//0xd0a1e359811322d97991e03f863a0c30c2cf029c\r\nreturn balance;\r\n    }\r\n\r\n\r\n\r\nfunction getUSDTBalance() public view returns (uint){\r\nuint balance;\r\nbalance = IERC20(0x6B175474E89094C44Da98b954EedeAC495271d0F).balanceOf(address(this));\r\nreturn balance;\r\n    }\r\n\r\n\r\n\r\n\r\nfunction swap(address _tokenIn, address _tokenOut, uint256 _amountIn, uint256 _amountOutMin, address _to) external {\r\n      \r\n    //first we need to transfer the amount in tokens from the msg.sender to this contract\r\n    //this contract will have the amount of in tokens\r\n    IERC20(_tokenIn).transferFrom(msg.sender, address(this), _amountIn);\r\n    \r\n    //next we need to allow the uniswapv2 router to spend the token we just sent to this contract\r\n    //by calling IERC20 approve you allow the uniswap contract to spend the tokens in this contract \r\n    IERC20(_tokenIn).approve(UNISWAP_V2_ROUTER, _amountIn);\r\n    uint time = block.timestamp + 100000;\r\n\r\n    //path is an array of addresses.\r\n    //this path array will have 3 addresses [tokenIn, WETH, tokenOut]\r\n    //the if statement below takes into account if token in or token out is WETH.  then the path is only 2 addresses\r\n    address[] memory path;\r\n    if (_tokenIn == WETH || _tokenOut == WETH) {\r\n      path = new address[](2);\r\n      path[0] = _tokenIn;\r\n      path[1] = _tokenOut;\r\n    } else {\r\n      path = new address[](3);\r\n      path[0] = _tokenIn;\r\n      path[1] = WETH;\r\n      path[2] = _tokenOut;\r\n    }\r\n        //then we will call swapExactTokensForTokens\r\n        //for the deadline we will pass in block.timestamp\r\n        //the deadline is the latest time the trade is valid for\r\n        IUniswapV2Router(UNISWAP_V2_ROUTER).swapExactTokensForTokens(_amountIn, _amountOutMin, path, _to, time);\r\n    }\r\n\r\n\r\n\r\nfunction simpleswap(address _tokenIn, address _tokenOut, uint256 _amountIn, uint256 _amountOutMin) public returns (uint [] memory amounts){\r\n      \r\n    //first we need to transfer the amount in tokens from the msg.sender to this contract\r\n    //this contract will have the amount of in tokens\r\n    //IERC20(_tokenIn).transferFrom(msg.sender, address(this), _amountIn);\r\n    \r\n    //next we need to allow the uniswapv2 router to spend the token we just sent to this contract\r\n    //by calling IERC20 approve you allow the uniswap contract to spend the tokens in this contract \r\n\r\n    IERC20(_tokenIn).approve(UNISWAP_V2_ROUTER, _amountIn);\r\n    uint time = block.timestamp;\r\n\r\n    //path is an array of addresses.\r\n    //this path array will have 3 addresses [tokenIn, WETH, tokenOut]\r\n    //the if statement below takes into account if token in or token out is WETH.  then the path is only 2 addresses\r\n    address[] memory path;\r\n    if (_tokenIn == WETH || _tokenOut == WETH) {\r\n      path = new address[](2);\r\n      path[0] = _tokenIn;\r\n      path[1] = _tokenOut;\r\n    } else {\r\n      path = new address[](3);\r\n      path[0] = _tokenIn;\r\n      path[1] = WETH;\r\n      path[2] = _tokenOut;\r\n    }\r\n        //then we will call swapExactTokensForTokens\r\n        //for the deadline we will pass in block.timestamp\r\n        //the deadline is the latest time the trade is valid for\r\n       amounts =  IUniswapV2Router(UNISWAP_V2_ROUTER).swapExactTokensForTokens(_amountIn, _amountOutMin, path,address(this) , block.timestamp);\r\n       return amounts;\r\n    }\r\n\r\n\r\n\r\nfunction getAmountOutMin(address _tokenIn, address _tokenOut, uint256 _amountIn) public view returns (uint256) {\r\n\r\n       //path is an array of addresses.\r\n       //this path array will have 3 addresses [tokenIn, WETH, tokenOut]\r\n       //the if statement below takes into account if token in or token out is WETH.  then the path is only 2 addresses\r\n        address[] memory path;\r\n        if (_tokenIn == WETH || _tokenOut == WETH) {\r\n            path = new address[](2);\r\n            path[0] = _tokenIn;\r\n            path[1] = _tokenOut;\r\n        } else {\r\n            path = new address[](3);\r\n            path[0] = _tokenIn;\r\n            path[1] = WETH;\r\n            path[2] = _tokenOut;\r\n        }\r\n        \r\n        uint256[] memory amountOutMins = IUniswapV2Router(UNISWAP_V2_ROUTER).getAmountsOut(_amountIn, path);\r\n        return amountOutMins[path.length -1];  \r\n    }  \r\n\r\nfunction depositerc20(address _tokenIn,uint _amountIn) external {\r\n\r\nIERC20(_tokenIn).transferFrom(msg.sender, address(this), _amountIn);\r\n\r\n}\r\n\r\n\r\n//function checkPayables (offering)\r\n\r\n\r\n\r\n\r\n\r\nreceive() external payable {\r\n        //emit Deposit(msg.sender, msg.value, address(this).balance);\r\n    }\r\n\r\n\r\n} \r\n\r\n\r\n",
  "sourcePath": "D:\\projects\\Bounty_1_truffle\\contracts\\TradeCenter.sol",
  "compiler": {
    "name": "solc",
    "version": "0.8.9+commit.e5eed63a.Emscripten.clang"
  },
  "schemaVersion": "3.4.5",
  "updatedAt": "2022-03-25T12:14:40.140Z",
  "networkType": "ethereum",
  "devdoc": {
    "kind": "dev",
    "methods": {},
    "version": 1
  },
  "userdoc": {
    "kind": "user",
    "methods": {
      "constructor": {
        "notice": "Network: Kovan Aggregator: ETH/USD Address: 0x9326BFA02ADD2366b30bacB125260Af641031331"
      },
      "getLatestPrice()": {
        "notice": "Returns the latest price"
      }
    },
    "version": 1
  }
}