{
  "contractName": "YieldOfferings",
  "abi": [
    {
      "inputs": [],
      "stateMutability": "nonpayable",
      "type": "constructor"
    },
    {
      "anonymous": false,
      "inputs": [
        {
          "indexed": false,
          "internalType": "uint256[]",
          "name": "",
          "type": "uint256[]"
        }
      ],
      "name": "getAmounts",
      "type": "event"
    },
    {
      "anonymous": false,
      "inputs": [
        {
          "components": [
            {
              "internalType": "address",
              "name": "buyer",
              "type": "address"
            },
            {
              "internalType": "address",
              "name": "issuer",
              "type": "address"
            },
            {
              "internalType": "uint256",
              "name": "amount",
              "type": "uint256"
            },
            {
              "internalType": "uint256",
              "name": "offeringID",
              "type": "uint256"
            },
            {
              "internalType": "uint256",
              "name": "contractID",
              "type": "uint256"
            },
            {
              "internalType": "int256",
              "name": "ethusdt0",
              "type": "int256"
            }
          ],
          "indexed": false,
          "internalType": "struct YieldOfferings.offeringContract",
          "name": "",
          "type": "tuple"
        }
      ],
      "name": "getContract",
      "type": "event"
    },
    {
      "anonymous": false,
      "inputs": [
        {
          "components": [
            {
              "internalType": "address",
              "name": "issuerAddress",
              "type": "address"
            },
            {
              "internalType": "uint256[]",
              "name": "offeringsList",
              "type": "uint256[]"
            }
          ],
          "indexed": false,
          "internalType": "struct YieldOfferings.issuer",
          "name": "",
          "type": "tuple"
        }
      ],
      "name": "getIssuer",
      "type": "event"
    },
    {
      "anonymous": false,
      "inputs": [
        {
          "components": [
            {
              "internalType": "uint256",
              "name": "usdt",
              "type": "uint256"
            },
            {
              "internalType": "uint256",
              "name": "eth",
              "type": "uint256"
            },
            {
              "internalType": "uint256",
              "name": "weth",
              "type": "uint256"
            }
          ],
          "indexed": false,
          "internalType": "struct YieldOfferings.wallet",
          "name": "",
          "type": "tuple"
        }
      ],
      "name": "getWalletInfo",
      "type": "event"
    },
    {
      "anonymous": false,
      "inputs": [
        {
          "indexed": false,
          "internalType": "int256",
          "name": "",
          "type": "int256"
        },
        {
          "indexed": false,
          "internalType": "string",
          "name": "",
          "type": "string"
        }
      ],
      "name": "gets",
      "type": "event"
    },
    {
      "anonymous": false,
      "inputs": [
        {
          "components": [
            {
              "internalType": "address",
              "name": "issuer",
              "type": "address"
            },
            {
              "internalType": "uint256",
              "name": "ID",
              "type": "uint256"
            },
            {
              "internalType": "string",
              "name": "name",
              "type": "string"
            },
            {
              "internalType": "uint256",
              "name": "fixing_counter",
              "type": "uint256"
            },
            {
              "internalType": "bool",
              "name": "Di_barrier_activated",
              "type": "bool"
            },
            {
              "internalType": "uint256",
              "name": "contractID",
              "type": "uint256"
            },
            {
              "internalType": "string",
              "name": "fixing_duration",
              "type": "string"
            },
            {
              "internalType": "uint256[]",
              "name": "attributes",
              "type": "uint256[]"
            }
          ],
          "indexed": false,
          "internalType": "struct YieldOfferings.offering",
          "name": "",
          "type": "tuple"
        }
      ],
      "name": "logAddedOffering",
      "type": "event"
    },
    {
      "anonymous": false,
      "inputs": [
        {
          "indexed": false,
          "internalType": "uint256",
          "name": "",
          "type": "uint256"
        },
        {
          "indexed": false,
          "internalType": "string",
          "name": "",
          "type": "string"
        }
      ],
      "name": "uintgetter",
      "type": "event"
    },
    {
      "inputs": [
        {
          "internalType": "address",
          "name": "",
          "type": "address"
        }
      ],
      "name": "BuyersMap",
      "outputs": [
        {
          "internalType": "address",
          "name": "issuerAddress",
          "type": "address"
        }
      ],
      "stateMutability": "view",
      "type": "function",
      "constant": true
    },
    {
      "inputs": [
        {
          "internalType": "uint256",
          "name": "",
          "type": "uint256"
        }
      ],
      "name": "DailyofferingIDList",
      "outputs": [
        {
          "internalType": "uint256",
          "name": "",
          "type": "uint256"
        }
      ],
      "stateMutability": "view",
      "type": "function",
      "constant": true
    },
    {
      "inputs": [
        {
          "internalType": "uint256",
          "name": "",
          "type": "uint256"
        }
      ],
      "name": "MonthlyofferingIDList",
      "outputs": [
        {
          "internalType": "uint256",
          "name": "",
          "type": "uint256"
        }
      ],
      "stateMutability": "view",
      "type": "function",
      "constant": true
    },
    {
      "inputs": [
        {
          "internalType": "uint256",
          "name": "",
          "type": "uint256"
        }
      ],
      "name": "Offerings",
      "outputs": [
        {
          "internalType": "address",
          "name": "issuer",
          "type": "address"
        },
        {
          "internalType": "uint256",
          "name": "ID",
          "type": "uint256"
        },
        {
          "internalType": "string",
          "name": "name",
          "type": "string"
        },
        {
          "internalType": "uint256",
          "name": "fixing_counter",
          "type": "uint256"
        },
        {
          "internalType": "bool",
          "name": "Di_barrier_activated",
          "type": "bool"
        },
        {
          "internalType": "uint256",
          "name": "contractID",
          "type": "uint256"
        },
        {
          "internalType": "string",
          "name": "fixing_duration",
          "type": "string"
        }
      ],
      "stateMutability": "view",
      "type": "function",
      "constant": true
    },
    {
      "inputs": [
        {
          "internalType": "uint256",
          "name": "",
          "type": "uint256"
        }
      ],
      "name": "WeeklyofferingIDList",
      "outputs": [
        {
          "internalType": "uint256",
          "name": "",
          "type": "uint256"
        }
      ],
      "stateMutability": "view",
      "type": "function",
      "constant": true
    },
    {
      "inputs": [
        {
          "internalType": "address",
          "name": "_tokenIn",
          "type": "address"
        },
        {
          "internalType": "uint256",
          "name": "_amountIn",
          "type": "uint256"
        }
      ],
      "name": "depositerc20",
      "outputs": [],
      "stateMutability": "nonpayable",
      "type": "function"
    },
    {
      "inputs": [
        {
          "internalType": "address",
          "name": "_tokenIn",
          "type": "address"
        },
        {
          "internalType": "address",
          "name": "_tokenOut",
          "type": "address"
        },
        {
          "internalType": "uint256",
          "name": "_amountIn",
          "type": "uint256"
        }
      ],
      "name": "getAmountOutMin",
      "outputs": [
        {
          "internalType": "uint256",
          "name": "",
          "type": "uint256"
        }
      ],
      "stateMutability": "view",
      "type": "function",
      "constant": true
    },
    {
      "inputs": [],
      "name": "getDaiBalance",
      "outputs": [
        {
          "internalType": "uint256",
          "name": "",
          "type": "uint256"
        }
      ],
      "stateMutability": "view",
      "type": "function",
      "constant": true
    },
    {
      "inputs": [
        {
          "internalType": "uint256",
          "name": "timestamp",
          "type": "uint256"
        }
      ],
      "name": "getDay",
      "outputs": [
        {
          "internalType": "uint8",
          "name": "",
          "type": "uint8"
        }
      ],
      "stateMutability": "pure",
      "type": "function",
      "constant": true
    },
    {
      "inputs": [
        {
          "internalType": "uint8",
          "name": "month",
          "type": "uint8"
        },
        {
          "internalType": "uint16",
          "name": "year",
          "type": "uint16"
        }
      ],
      "name": "getDaysInMonth",
      "outputs": [
        {
          "internalType": "uint8",
          "name": "",
          "type": "uint8"
        }
      ],
      "stateMutability": "pure",
      "type": "function",
      "constant": true
    },
    {
      "inputs": [
        {
          "internalType": "uint256",
          "name": "timestamp",
          "type": "uint256"
        }
      ],
      "name": "getHour",
      "outputs": [
        {
          "internalType": "uint8",
          "name": "",
          "type": "uint8"
        }
      ],
      "stateMutability": "pure",
      "type": "function",
      "constant": true
    },
    {
      "inputs": [],
      "name": "getLatestPrice",
      "outputs": [
        {
          "internalType": "int256",
          "name": "",
          "type": "int256"
        }
      ],
      "stateMutability": "view",
      "type": "function",
      "constant": true
    },
    {
      "inputs": [
        {
          "internalType": "uint256",
          "name": "timestamp",
          "type": "uint256"
        }
      ],
      "name": "getMinute",
      "outputs": [
        {
          "internalType": "uint8",
          "name": "",
          "type": "uint8"
        }
      ],
      "stateMutability": "pure",
      "type": "function",
      "constant": true
    },
    {
      "inputs": [
        {
          "internalType": "uint256",
          "name": "timestamp",
          "type": "uint256"
        }
      ],
      "name": "getMonth",
      "outputs": [
        {
          "internalType": "uint8",
          "name": "",
          "type": "uint8"
        }
      ],
      "stateMutability": "pure",
      "type": "function",
      "constant": true
    },
    {
      "inputs": [
        {
          "internalType": "uint256",
          "name": "timestamp",
          "type": "uint256"
        }
      ],
      "name": "getSecond",
      "outputs": [
        {
          "internalType": "uint8",
          "name": "",
          "type": "uint8"
        }
      ],
      "stateMutability": "pure",
      "type": "function",
      "constant": true
    },
    {
      "inputs": [],
      "name": "getUSDTBalance",
      "outputs": [
        {
          "internalType": "uint256",
          "name": "",
          "type": "uint256"
        }
      ],
      "stateMutability": "view",
      "type": "function",
      "constant": true
    },
    {
      "inputs": [],
      "name": "getWETHBalance",
      "outputs": [
        {
          "internalType": "uint256",
          "name": "",
          "type": "uint256"
        }
      ],
      "stateMutability": "view",
      "type": "function",
      "constant": true
    },
    {
      "inputs": [
        {
          "internalType": "uint256",
          "name": "timestamp",
          "type": "uint256"
        }
      ],
      "name": "getWeekday",
      "outputs": [
        {
          "internalType": "uint8",
          "name": "",
          "type": "uint8"
        }
      ],
      "stateMutability": "pure",
      "type": "function",
      "constant": true
    },
    {
      "inputs": [
        {
          "internalType": "uint256",
          "name": "timestamp",
          "type": "uint256"
        }
      ],
      "name": "getYear",
      "outputs": [
        {
          "internalType": "uint16",
          "name": "",
          "type": "uint16"
        }
      ],
      "stateMutability": "pure",
      "type": "function",
      "constant": true
    },
    {
      "inputs": [
        {
          "internalType": "uint16",
          "name": "year",
          "type": "uint16"
        }
      ],
      "name": "isLeapYear",
      "outputs": [
        {
          "internalType": "bool",
          "name": "",
          "type": "bool"
        }
      ],
      "stateMutability": "pure",
      "type": "function",
      "constant": true
    },
    {
      "inputs": [
        {
          "internalType": "uint256",
          "name": "year",
          "type": "uint256"
        }
      ],
      "name": "leapYearsBefore",
      "outputs": [
        {
          "internalType": "uint256",
          "name": "",
          "type": "uint256"
        }
      ],
      "stateMutability": "pure",
      "type": "function",
      "constant": true
    },
    {
      "inputs": [],
      "name": "owner",
      "outputs": [
        {
          "internalType": "address",
          "name": "",
          "type": "address"
        }
      ],
      "stateMutability": "view",
      "type": "function",
      "constant": true
    },
    {
      "inputs": [
        {
          "internalType": "address",
          "name": "_tokenIn",
          "type": "address"
        },
        {
          "internalType": "address",
          "name": "_tokenOut",
          "type": "address"
        },
        {
          "internalType": "uint256",
          "name": "_amountIn",
          "type": "uint256"
        },
        {
          "internalType": "uint256",
          "name": "_amountOutMin",
          "type": "uint256"
        }
      ],
      "name": "simpleswap",
      "outputs": [
        {
          "internalType": "uint256[]",
          "name": "amounts",
          "type": "uint256[]"
        }
      ],
      "stateMutability": "nonpayable",
      "type": "function"
    },
    {
      "inputs": [
        {
          "internalType": "address",
          "name": "_tokenIn",
          "type": "address"
        },
        {
          "internalType": "address",
          "name": "_tokenOut",
          "type": "address"
        },
        {
          "internalType": "uint256",
          "name": "_amountIn",
          "type": "uint256"
        },
        {
          "internalType": "uint256",
          "name": "_amountOutMin",
          "type": "uint256"
        },
        {
          "internalType": "address",
          "name": "_to",
          "type": "address"
        }
      ],
      "name": "swap",
      "outputs": [],
      "stateMutability": "nonpayable",
      "type": "function"
    },
    {
      "inputs": [
        {
          "internalType": "uint16",
          "name": "year",
          "type": "uint16"
        },
        {
          "internalType": "uint8",
          "name": "month",
          "type": "uint8"
        },
        {
          "internalType": "uint8",
          "name": "day",
          "type": "uint8"
        },
        {
          "internalType": "uint8",
          "name": "hour",
          "type": "uint8"
        },
        {
          "internalType": "uint8",
          "name": "minute",
          "type": "uint8"
        }
      ],
      "name": "toTimestamp",
      "outputs": [
        {
          "internalType": "uint256",
          "name": "timestamp",
          "type": "uint256"
        }
      ],
      "stateMutability": "pure",
      "type": "function",
      "constant": true
    },
    {
      "inputs": [
        {
          "internalType": "uint16",
          "name": "year",
          "type": "uint16"
        },
        {
          "internalType": "uint8",
          "name": "month",
          "type": "uint8"
        },
        {
          "internalType": "uint8",
          "name": "day",
          "type": "uint8"
        },
        {
          "internalType": "uint8",
          "name": "hour",
          "type": "uint8"
        }
      ],
      "name": "toTimestamp",
      "outputs": [
        {
          "internalType": "uint256",
          "name": "timestamp",
          "type": "uint256"
        }
      ],
      "stateMutability": "pure",
      "type": "function",
      "constant": true
    },
    {
      "inputs": [
        {
          "internalType": "uint16",
          "name": "year",
          "type": "uint16"
        },
        {
          "internalType": "uint8",
          "name": "month",
          "type": "uint8"
        },
        {
          "internalType": "uint8",
          "name": "day",
          "type": "uint8"
        }
      ],
      "name": "toTimestamp",
      "outputs": [
        {
          "internalType": "uint256",
          "name": "timestamp",
          "type": "uint256"
        }
      ],
      "stateMutability": "pure",
      "type": "function",
      "constant": true
    },
    {
      "inputs": [
        {
          "internalType": "uint16",
          "name": "year",
          "type": "uint16"
        },
        {
          "internalType": "uint8",
          "name": "month",
          "type": "uint8"
        },
        {
          "internalType": "uint8",
          "name": "day",
          "type": "uint8"
        },
        {
          "internalType": "uint8",
          "name": "hour",
          "type": "uint8"
        },
        {
          "internalType": "uint8",
          "name": "minute",
          "type": "uint8"
        },
        {
          "internalType": "uint8",
          "name": "second",
          "type": "uint8"
        }
      ],
      "name": "toTimestamp",
      "outputs": [
        {
          "internalType": "uint256",
          "name": "timestamp",
          "type": "uint256"
        }
      ],
      "stateMutability": "pure",
      "type": "function",
      "constant": true
    },
    {
      "inputs": [
        {
          "internalType": "address",
          "name": "",
          "type": "address"
        }
      ],
      "name": "walletMap",
      "outputs": [
        {
          "internalType": "uint256",
          "name": "usdt",
          "type": "uint256"
        },
        {
          "internalType": "uint256",
          "name": "eth",
          "type": "uint256"
        },
        {
          "internalType": "uint256",
          "name": "weth",
          "type": "uint256"
        }
      ],
      "stateMutability": "view",
      "type": "function",
      "constant": true
    },
    {
      "stateMutability": "payable",
      "type": "receive",
      "payable": true
    },
    {
      "inputs": [],
      "name": "SignInIssuer",
      "outputs": [],
      "stateMutability": "nonpayable",
      "type": "function"
    },
    {
      "inputs": [
        {
          "internalType": "address",
          "name": "CoinAddress",
          "type": "address"
        },
        {
          "internalType": "string",
          "name": "CoinName",
          "type": "string"
        }
      ],
      "name": "supportCoin",
      "outputs": [],
      "stateMutability": "nonpayable",
      "type": "function"
    },
    {
      "inputs": [
        {
          "internalType": "string",
          "name": "a",
          "type": "string"
        },
        {
          "internalType": "string",
          "name": "b",
          "type": "string"
        }
      ],
      "name": "compareStrings",
      "outputs": [
        {
          "internalType": "bool",
          "name": "",
          "type": "bool"
        }
      ],
      "stateMutability": "view",
      "type": "function",
      "constant": true
    },
    {
      "inputs": [
        {
          "internalType": "string",
          "name": "_name",
          "type": "string"
        },
        {
          "internalType": "uint256[]",
          "name": "input",
          "type": "uint256[]"
        },
        {
          "internalType": "string",
          "name": "fixing_duration",
          "type": "string"
        }
      ],
      "name": "addOfferingList",
      "outputs": [],
      "stateMutability": "nonpayable",
      "type": "function"
    },
    {
      "inputs": [
        {
          "internalType": "int256",
          "name": "usdtPrice",
          "type": "int256"
        },
        {
          "internalType": "int256",
          "name": "ethusdt0",
          "type": "int256"
        }
      ],
      "name": "WeeklyofferingsLoader",
      "outputs": [
        {
          "internalType": "uint256",
          "name": "",
          "type": "uint256"
        }
      ],
      "stateMutability": "nonpayable",
      "type": "function"
    },
    {
      "inputs": [
        {
          "components": [
            {
              "internalType": "address",
              "name": "issuer",
              "type": "address"
            },
            {
              "internalType": "uint256",
              "name": "ID",
              "type": "uint256"
            },
            {
              "internalType": "string",
              "name": "name",
              "type": "string"
            },
            {
              "internalType": "uint256",
              "name": "fixing_counter",
              "type": "uint256"
            },
            {
              "internalType": "bool",
              "name": "Di_barrier_activated",
              "type": "bool"
            },
            {
              "internalType": "uint256",
              "name": "contractID",
              "type": "uint256"
            },
            {
              "internalType": "string",
              "name": "fixing_duration",
              "type": "string"
            },
            {
              "internalType": "uint256[]",
              "name": "attributes",
              "type": "uint256[]"
            }
          ],
          "internalType": "struct YieldOfferings.offering",
          "name": "Offering",
          "type": "tuple"
        },
        {
          "internalType": "int256",
          "name": "usdtPrice",
          "type": "int256"
        },
        {
          "internalType": "int256",
          "name": "ethusdt0",
          "type": "int256"
        }
      ],
      "name": "handleFixing",
      "outputs": [
        {
          "internalType": "uint256",
          "name": "",
          "type": "uint256"
        }
      ],
      "stateMutability": "nonpayable",
      "type": "function"
    },
    {
      "inputs": [],
      "name": "depositToWallet",
      "outputs": [],
      "stateMutability": "payable",
      "type": "function",
      "payable": true
    },
    {
      "inputs": [
        {
          "internalType": "uint256",
          "name": "amount",
          "type": "uint256"
        }
      ],
      "name": "swapETHFromBuiltInWallet",
      "outputs": [
        {
          "internalType": "uint256[]",
          "name": "",
          "type": "uint256[]"
        }
      ],
      "stateMutability": "nonpayable",
      "type": "function"
    },
    {
      "inputs": [
        {
          "internalType": "uint256",
          "name": "_id",
          "type": "uint256"
        }
      ],
      "name": "buyOffering",
      "outputs": [
        {
          "internalType": "string",
          "name": "",
          "type": "string"
        }
      ],
      "stateMutability": "payable",
      "type": "function",
      "payable": true
    },
    {
      "inputs": [],
      "name": "getCount",
      "outputs": [
        {
          "internalType": "uint256",
          "name": "count",
          "type": "uint256"
        }
      ],
      "stateMutability": "view",
      "type": "function",
      "constant": true
    },
    {
      "inputs": [],
      "name": "getContractCount",
      "outputs": [
        {
          "internalType": "uint256",
          "name": "count",
          "type": "uint256"
        }
      ],
      "stateMutability": "view",
      "type": "function",
      "constant": true
    },
    {
      "inputs": [],
      "name": "getContractETH",
      "outputs": [
        {
          "internalType": "uint256",
          "name": "",
          "type": "uint256"
        }
      ],
      "stateMutability": "view",
      "type": "function",
      "constant": true
    },
    {
      "inputs": [],
      "name": "getOfferings",
      "outputs": [
        {
          "components": [
            {
              "internalType": "address",
              "name": "issuer",
              "type": "address"
            },
            {
              "internalType": "uint256",
              "name": "ID",
              "type": "uint256"
            },
            {
              "internalType": "string",
              "name": "name",
              "type": "string"
            },
            {
              "internalType": "uint256",
              "name": "fixing_counter",
              "type": "uint256"
            },
            {
              "internalType": "bool",
              "name": "Di_barrier_activated",
              "type": "bool"
            },
            {
              "internalType": "uint256",
              "name": "contractID",
              "type": "uint256"
            },
            {
              "internalType": "string",
              "name": "fixing_duration",
              "type": "string"
            },
            {
              "internalType": "uint256[]",
              "name": "attributes",
              "type": "uint256[]"
            }
          ],
          "internalType": "struct YieldOfferings.offering[]",
          "name": "",
          "type": "tuple[]"
        }
      ],
      "stateMutability": "view",
      "type": "function",
      "constant": true
    },
    {
      "inputs": [],
      "name": "getAllContracts",
      "outputs": [
        {
          "components": [
            {
              "internalType": "address",
              "name": "buyer",
              "type": "address"
            },
            {
              "internalType": "address",
              "name": "issuer",
              "type": "address"
            },
            {
              "internalType": "uint256",
              "name": "amount",
              "type": "uint256"
            },
            {
              "internalType": "uint256",
              "name": "offeringID",
              "type": "uint256"
            },
            {
              "internalType": "uint256",
              "name": "contractID",
              "type": "uint256"
            },
            {
              "internalType": "int256",
              "name": "ethusdt0",
              "type": "int256"
            }
          ],
          "internalType": "struct YieldOfferings.offeringContract[]",
          "name": "",
          "type": "tuple[]"
        }
      ],
      "stateMutability": "view",
      "type": "function",
      "constant": true
    },
    {
      "inputs": [],
      "name": "getDayFromTimeStamp",
      "outputs": [
        {
          "internalType": "uint8",
          "name": "",
          "type": "uint8"
        }
      ],
      "stateMutability": "view",
      "type": "function",
      "constant": true
    },
    {
      "inputs": [],
      "name": "fillPriceLog",
      "outputs": [],
      "stateMutability": "nonpayable",
      "type": "function"
    },
    {
      "inputs": [],
      "name": "getWallet",
      "outputs": [
        {
          "components": [
            {
              "internalType": "uint256",
              "name": "usdt",
              "type": "uint256"
            },
            {
              "internalType": "uint256",
              "name": "eth",
              "type": "uint256"
            },
            {
              "internalType": "uint256",
              "name": "weth",
              "type": "uint256"
            }
          ],
          "internalType": "struct YieldOfferings.wallet",
          "name": "",
          "type": "tuple"
        }
      ],
      "stateMutability": "view",
      "type": "function",
      "constant": true
    }
  ],
  "bytecode": "0x600280546001600160a01b0319163317905560006003819055600160045560055560c06040526007608081905266426f756768742160c81b60a09081526200004b91600a9190620000a8565b503480156200005957600080fd5b50600080546001600160a01b0319908116735f4ec3df9cbd43714fe2740f5e3616155c5b8419179091556001805490911673c02aaa39b223fe8d0a0e5c4f27ead9083c756cc21790556200018b565b828054620000b6906200014e565b90600052602060002090601f016020900481019282620000da576000855562000125565b82601f10620000f557805160ff191683800117855562000125565b8280016001018555821562000125579182015b828111156200012557825182559160200191906001019062000108565b506200013392915062000137565b5090565b5b8082111562000133576000815560010162000138565b600181811c908216806200016357607f821691505b602082108114156200018557634e487b7160e01b600052602260045260246000fd5b50919050565b614450806200019b6000396000f3fe6080604052600436106102805760003560e01c80638aa001fc1161014f578063a6f0e577116100c1578063cd33c9411161007a578063cd33c941146107f0578063d5bcb9b514610810578063e7af8f1c14610830578063ef3055d914610850578063f1f5bef014610886578063fa93f8831461088e57600080fd5b8063a6f0e57714610736578063a87d942c14610766578063b07627c81461077b578063b199993714610790578063b238ad0e146107b0578063bed34bba146107d057600080fd5b806392d663131161011357806392d66313146106425780639399869d1461067557806393b6a95a1461068a5780639785fac8146106aa578063a2bd4943146106bf578063a324ad241461071657600080fd5b80638aa001fc146105955780638c8d98a0146105b55780638da5cb5b146105d55780638e15f4731461060d5780639054bdec1461062257600080fd5b80635dcba4e7116101f35780636736caa5116101ac5780636736caa5146104ed5780637aafa19e1461050d5780637d096ddf1461052d5780637f7918331461054d5780638258cbbd1461056d578063890d26c71461058057600080fd5b80635dcba4e7146104345780635ddc916a146104545780635dfea79e1461046957806362ba96871461048b57806365881ee9146104ab57806365c72840146104cd57600080fd5b80633c50eec1116102455780633c50eec11461036d5780633e239e1a1461038d5780634ac1ad78146103bf5780634d72a8c9146103df5780634f0238b8146103f45780635d8efce11461041457600080fd5b8062cbb73b1461028c578063059886ca146102b45780630bd5d863146102e1578063132996041461031457806318d3ce961461034b57600080fd5b3661028757005b600080fd5b34801561029857600080fd5b506102a16108ae565b6040519081526020015b60405180910390f35b3480156102c057600080fd5b506102d46102cf36600461346a565b610936565b6040516102ab9190613483565b3480156102ed57600080fd5b506103016102fc36600461346a565b610be6565b6040516102ab9796959493929190613523565b34801561032057600080fd5b50610329610d44565b60408051825181526020808401519082015291810151908201526060016102ab565b34801561035757600080fd5b50610360610da2565b6040516102ab919061357e565b34801561037957600080fd5b506102a161038836600461361e565b610ee6565b34801561039957600080fd5b506103ad6103a836600461346a565b611148565b60405160ff90911681526020016102ab565b3480156103cb57600080fd5b506103ad6103da36600461346a565b61116c565b3480156103eb57600080fd5b506103ad611188565b34801561040057600080fd5b506102d461040f36600461365a565b61119c565b61042761042236600461346a565b611470565b6040516102ab919061369c565b34801561044057600080fd5b506102a161044f36600461346a565b611684565b34801561046057600080fd5b506102a16116a5565b34801561047557600080fd5b5061048961048436600461381f565b6116e1565b005b34801561049757600080fd5b506102a16104a63660046138ca565b611a99565b3480156104b757600080fd5b506104c0611ab4565b6040516102ab919061396a565b3480156104d957600080fd5b506103ad6104e836600461346a565b611d82565b3480156104f957600080fd5b506102a1610508366004613a55565b611d97565b34801561051957600080fd5b50610489610528366004613a77565b611fcb565b34801561053957600080fd5b506102a161054836600461346a565b612026565b34801561055957600080fd5b506102a1610568366004613ac5565b612036565b34801561057957600080fd5b50476102a1565b34801561058c57600080fd5b50610489612050565b3480156105a157600080fd5b506103ad6105b036600461346a565b6121ab565b3480156105c157600080fd5b506102a16105d0366004613b19565b6121b8565b3480156105e157600080fd5b506002546105f5906001600160a01b031681565b6040516001600160a01b0390911681526020016102ab565b34801561061957600080fd5b506102a16121d2565b34801561062e57600080fd5b506102a161063d366004613b5c565b61226e565b34801561064e57600080fd5b5061066261065d36600461346a565b61241f565b60405161ffff90911681526020016102ab565b34801561068157600080fd5b506004546102a1565b34801561069657600080fd5b506104896106a5366004613bd0565b612507565b3480156106b657600080fd5b506102a1612592565b3480156106cb57600080fd5b506106fb6106da366004613bfa565b600d6020526000908152604090208054600182015460029092015490919083565b604080519384526020840192909252908201526060016102ab565b34801561072257600080fd5b506103ad61073136600461346a565b6125ce565b34801561074257600080fd5b50610756610751366004613c15565b6125e3565b60405190151581526020016102ab565b34801561077257600080fd5b506007546102a1565b34801561078757600080fd5b50610489612642565b34801561079c57600080fd5b506102a16107ab36600461346a565b6126d8565b3480156107bc57600080fd5b506103ad6107cb366004613c30565b61271d565b3480156107dc57600080fd5b506107566107eb366004613c63565b6127e3565b3480156107fc57600080fd5b506102a161080b36600461346a565b61283c565b34801561081c57600080fd5b5061048961082b366004613cbd565b61284c565b34801561083c57600080fd5b506102a161084b366004613d24565b612bb3565b34801561085c57600080fd5b506105f561086b366004613bfa565b6010602052600090815260409020546001600160a01b031681565b6104896130b5565b34801561089a57600080fd5b506103ad6108a936600461346a565b613182565b6040516370a0823160e01b815230600482015260009081906000805160206143fb833981519152906370a08231906024015b60206040518083038186803b1580156108f857600080fd5b505afa15801561090c573d6000803e3d6000fd5b505050506040513d601f19601f820116820180604052508101906109309190613e2b565b92915050565b336000908152600d602052604090206001015460609082111561095857600080fd5b6000610965426064613e5a565b60408051600280825260608201835292935060009290916020830190803683370190505090506000805160206143fb833981519152816000815181106109ad576109ad613e72565b60200260200101906001600160a01b031690816001600160a01b03168152505073dac17f958d2ee523a2206206994597c13d831ec7816001815181106109f5576109f5613e72565b6001600160a01b03928316602091820292909201015260015460408051630d0e30db60e41b81529051919092169163d0e30db091879160048082019260009290919082900301818588803b158015610a4c57600080fd5b505af1158015610a60573d6000803e3d6000fd5b50505050506000610a946000805160206143fb833981519152736b175474e89094c44da98b954eedeac495271d0f87610ee6565b90506000610ac66000805160206143fb833981519152736b175474e89094c44da98b954eedeac495271d0f888561119c565b90507f8877fecc35f925da8a88e73d44b3c2502b8f43e2c21645c6bef7dbc2da04151981604051610af79190613483565b60405180910390a180600181518110610b1257610b12613e72565b6020026020010151600d6000336001600160a01b03166001600160a01b031681526020019081526020016000206000016000828254610b519190613e5a565b9091555050336000908152600d602052604081206001018054889290610b78908490613e88565b9091555050336000908152600d60205260409081902090517f72e8a9e162166777febe65180487a15d66a798aa00ccf3d4743743cf235fdb7b91610bd5918154815260018201546020820152600290910154604082015260600190565b60405180910390a195945050505050565b600c602052600090815260409020805460018201546002830180546001600160a01b03909316939192610c1890613e9f565b80601f0160208091040260200160405190810160405280929190818152602001828054610c4490613e9f565b8015610c915780601f10610c6657610100808354040283529160200191610c91565b820191906000526020600020905b815481529060010190602001808311610c7457829003601f168201915b5050506003840154600485015460058601546006870180549697939660ff909316955090935090610cc190613e9f565b80601f0160208091040260200160405190810160405280929190818152602001828054610ced90613e9f565b8015610d3a5780601f10610d0f57610100808354040283529160200191610d3a565b820191906000526020600020905b815481529060010190602001808311610d1d57829003601f168201915b5050505050905087565b610d6860405180606001604052806000815260200160008152602001600081525090565b50336000908152600d6020908152604091829020825160608101845281548152600182015492810192909252600201549181019190915290565b6060600060045467ffffffffffffffff811115610dc157610dc16136af565b604051908082528060200260200182016040528015610e3d57816020015b610e2a6040518060c0016040528060006001600160a01b0316815260200160006001600160a01b03168152602001600081526020016000815260200160008152602001600081525090565b815260200190600190039081610ddf5790505b50905060005b600454811015610ee0576000818152600e6020908152604091829020825160c08101845281546001600160a01b03908116825260018301541692810192909252600281015492820192909252600382015460608201526004820154608082015260059091015460a08201528251839083908110610ec257610ec2613e72565b60200260200101819052508080610ed890613ed4565b915050610e43565b50919050565b600060606001600160a01b0385166000805160206143fb8339815191521480610f2557506001600160a01b0384166000805160206143fb833981519152145b15610fb75760408051600280825260608201835290916020830190803683370190505090508481600081518110610f5e57610f5e613e72565b60200260200101906001600160a01b031690816001600160a01b0316815250508381600181518110610f9257610f92613e72565b60200260200101906001600160a01b031690816001600160a01b031681525050611083565b6040805160038082526080820190925290602082016060803683370190505090508481600081518110610fec57610fec613e72565b60200260200101906001600160a01b031690816001600160a01b0316815250506000805160206143fb8339815191528160018151811061102e5761102e613e72565b60200260200101906001600160a01b031690816001600160a01b031681525050838160028151811061106257611062613e72565b60200260200101906001600160a01b031690816001600160a01b0316815250505b60405163d06ca61f60e01b8152600090737a250d5630b4cf539739df2c5dacb4c659f2488d9063d06ca61f906110bf9087908690600401613f28565b60006040518083038186803b1580156110d757600080fd5b505afa1580156110eb573d6000803e3d6000fd5b505050506040513d6000823e601f3d908101601f191682016040526111139190810190613f41565b905080600183516111249190613e88565b8151811061113457611134613e72565b6020026020010151925050505b9392505050565b60006018603c6111588185613fdd565b6111629190613fdd565b6109309190613ff1565b6000600761117d6201518084613fdd565b611162906004613e5a565b600061119342613190565b60400151905090565b60405163095ea7b360e01b8152737a250d5630b4cf539739df2c5dacb4c659f2488d6004820152602481018390526060906001600160a01b0386169063095ea7b390604401602060405180830381600087803b1580156111fb57600080fd5b505af115801561120f573d6000803e3d6000fd5b505050506040513d601f19601f820116820180604052508101906112339190614005565b504260606001600160a01b0387166000805160206143fb833981519152148061127257506001600160a01b0386166000805160206143fb833981519152145b1561130457604080516002808252606082018352909160208301908036833701905050905086816000815181106112ab576112ab613e72565b60200260200101906001600160a01b031690816001600160a01b03168152505085816001815181106112df576112df613e72565b60200260200101906001600160a01b031690816001600160a01b0316815250506113d0565b604080516003808252608082019092529060208201606080368337019050509050868160008151811061133957611339613e72565b60200260200101906001600160a01b031690816001600160a01b0316815250506000805160206143fb8339815191528160018151811061137b5761137b613e72565b60200260200101906001600160a01b031690816001600160a01b03168152505085816002815181106113af576113af613e72565b60200260200101906001600160a01b031690816001600160a01b0316815250505b6040516338ed173960e01b8152737a250d5630b4cf539739df2c5dacb4c659f2488d906338ed17399061140f9088908890869030904290600401614022565b600060405180830381600087803b15801561142957600080fd5b505af115801561143d573d6000803e3d6000fd5b505050506040513d6000823e601f3d908101601f191682016040526114659190810190613f41565b979650505050505050565b606042600061147d6121d2565b6040805160c0810182523381526000878152600c602090815283822080546001600160a01b0390811683860190815234868801908152606087018d81526004805460808a0181815260a08b018d8152918a52600e808a528c8b209b518c549089166001600160a01b0319918216178d55965160018d01805491909916971696909617909655925160028a015590516003890155925187840155516005968701559054949091018490559282529190915281902090519192507fae07c750619676b65c76014d9369b102a06a3011a65578484a83ab388ef569dc916115a5919081546001600160a01b039081168252600183015416602082015260028201546040820152600382015460608201526004820154608082015260059091015460a082015260c00190565b60405180910390a16001600460008282546115c09190613e5a565b90915550506000848152600c60209081526040808320546001600160a01b03168352600d909152902034600190910155600a80546115fd90613e9f565b80601f016020809104026020016040519081016040528092919081815260200182805461162990613e9f565b80156116765780601f1061164b57610100808354040283529160200191611676565b820191906000526020600020905b81548152906001019060200180831161165957829003601f168201915b505050505092505050919050565b6008818154811061169457600080fd5b600091825260209091200154905081565b6040516370a0823160e01b8152306004820152600090819073111111111117dc0aa78b770fa6a738034120c302906370a08231906024016108e0565b336000818152601160205260409020546001600160a01b03161461174c5760405162461bcd60e51b815260206004820152601860248201527f506c65617365205369676e20496e20617320497373756572000000000000000060448201526064015b60405180910390fd5b600083511161179d5760405162461bcd60e51b815260206004820152601760248201527f6e616d652063616e6e6f7420626576616c20656d7074790000000000000000006044820152606401611743565b6117c581604051806040016040528060068152602001657765656b6c7960d01b8152506127e3565b806117f457506117f481604051806040016040528060078152602001666d6f6e74686c7960c81b8152506127e3565b80611827575061182181604051806040016040528060058152602001646461696c7960d81b8152506127e3565b15156001145b61183057600080fd5b600060035460016118419190613e5a565b905061186b82604051806040016040528060068152602001657765656b6c7960d01b8152506127e3565b156118aa57600780546001810182556000919091527fa66cc928b5edb82af9bd49922954155ab7b0942694bea4ce44661d9a8736c68801819055611948565b6118d382604051806040016040528060078152602001666d6f6e74686c7960c81b8152506127e3565b1561191257600680546001810182556000919091527ff652222313e28459528d920b65115c16c04f3efc82aaedc97be59f3f377c0d3f01819055611948565b600880546001810182556000919091527ff3f7a9fe364faab93b216da50a3214154f22a0a2b415b23a84c8169e8b636ee3018190555b604080516101008101825233815260208082018481528284018881526000606085018190526080850181905260a0850181905260c0850188905260e08501899052868152600c8452948520845181546001600160a01b0319166001600160a01b039091161781559151600183015551805191926119cd92600285019290910190613378565b5060608201516003820155608082015160048201805460ff191691151591909117905560a0820151600582015560c08201518051611a15916006840191602090910190613378565b5060e08201518051611a319160078401916020909101906133fc565b50905050600160036000828254611a489190613e5a565b90915550506000828152600c60205260409081902090517fdd65e5e936add42c1243a235ee70787b647fc85e7e2bf224d9013ed069f8309691611a8a91614133565b60405180910390a15050505050565b6000611aaa8686868686600061226e565b9695505050505050565b6060600060035467ffffffffffffffff811115611ad357611ad36136af565b604051908082528060200260200182016040528015611b5757816020015b611b4460405180610100016040528060006001600160a01b031681526020016000815260200160608152602001600081526020016000151581526020016000815260200160608152602001606081525090565b815260200190600190039081611af15790505b50905060005b600354811015610ee057600c6000611b76836001613e5a565b8152602080820192909252604090810160002081516101008101835281546001600160a01b031681526001820154938101939093526002810180549192840191611bbf90613e9f565b80601f0160208091040260200160405190810160405280929190818152602001828054611beb90613e9f565b8015611c385780601f10611c0d57610100808354040283529160200191611c38565b820191906000526020600020905b815481529060010190602001808311611c1b57829003601f168201915b505050918352505060038201546020820152600482015460ff161515604082015260058201546060820152600682018054608090920191611c7890613e9f565b80601f0160208091040260200160405190810160405280929190818152602001828054611ca490613e9f565b8015611cf15780601f10611cc657610100808354040283529160200191611cf1565b820191906000526020600020905b815481529060010190602001808311611cd457829003601f168201915b5050505050815260200160078201805480602002602001604051908101604052809291908181526020018280548015611d4957602002820191906000526020600020905b815481526020019060010190808311611d35575b505050505081525050828281518110611d6457611d64613e72565b60200260200101819052508080611d7a90613ed4565b915050611b5d565b6000611d8d82613190565b6040015192915050565b60008060005b600754811015611fc357611faf600c600060078481548110611dc157611dc1613e72565b60009182526020808320909101548352828101939093526040918201902081516101008101835281546001600160a01b031681526001820154938101939093526002810180549192840191611e1590613e9f565b80601f0160208091040260200160405190810160405280929190818152602001828054611e4190613e9f565b8015611e8e5780601f10611e6357610100808354040283529160200191611e8e565b820191906000526020600020905b815481529060010190602001808311611e7157829003601f168201915b505050918352505060038201546020820152600482015460ff161515604082015260058201546060820152600682018054608090920191611ece90613e9f565b80601f0160208091040260200160405190810160405280929190818152602001828054611efa90613e9f565b8015611f475780601f10611f1c57610100808354040283529160200191611f47565b820191906000526020600020905b815481529060010190602001808311611f2a57829003601f168201915b5050505050815260200160078201805480602002602001604051908101604052809291908181526020018280548015611f9f57602002820191906000526020600020905b815481526020019060010190808311611f8b575b5050505050815250508686612bb3565b915080611fbb81613ed4565b915050611d9d565b509392505050565b6002546001600160a01b03163314611fe257600080fd5b81600f82604051611ff391906141d9565b90815260405190819003602001902080546001600160a01b03929092166001600160a01b03199092169190911790555050565b6006818154811061169457600080fd5b60006120478585858560008061226e565b95945050505050565b336000908152601160205260409020546001600160a01b0316156120b65760405162461bcd60e51b815260206004820152601c60248201527f416c7265616479205369676e656420696e2061732049737375657221000000006044820152606401611743565b6040805160608101825260008082526020808301828152838501838152338452600d90925293909120915182559151600180830191909155915160029091015560055461210291613e5a565b600555604080518082018252338082526060602080840182815260009384526011825294909220835181546001600160a01b0319166001600160a01b039091161781559351805191949261215e926001850192909101906133fc565b5050336000908152601160205260409081902090517fe98c073dd958639e8957a0d059199a9480a89cd8af94ba92e4aadd4a0c21468992506121a091906141f5565b60405180910390a150565b6000610930603c83613ff1565b60006121ca848484600080600061226e565b949350505050565b60008060008060008060008054906101000a90046001600160a01b03166001600160a01b031663feaf968c6040518163ffffffff1660e01b815260040160a06040518083038186803b15801561222757600080fd5b505afa15801561223b573d6000803e3d6000fd5b505050506040513d601f19601f8201168201806040525081019061225f919061423b565b50919998505050505050505050565b60006107b25b8761ffff168161ffff1610156122ca5761228d816125e3565b156122a7576122a06301e2850083613e5a565b91506122b8565b6122b56301e1338083613e5a565b91505b806122c28161427f565b915050612274565b6122d2613436565b601f81526122df896125e3565b156122f057601d60208201526122f8565b601c60208201525b601f60408201819052601e606083018190526080830182905260a0830181905260c0830182905260e0830182905261010083018190526101208301829052610140830152610160820152600191505b8760ff168261ffff1610156123a957806123626001846142a1565b61ffff16600c811061237657612376613e72565b602002015161238b9060ff16620151806142c4565b6123959084613e5a565b9250816123a18161427f565b925050612347565b6123b46001886142e3565b6123c49060ff16620151806142c4565b6123ce9084613e5a565b92506123df60ff8716610e106142c4565b6123e99084613e5a565b92506123f960ff8616603c6142c4565b6124039084613e5a565b925061241260ff851684613e5a565b9998505050505050505050565b60008080806124326301e1338086613fdd565b61243e906107b2613e5a565b915061244b6107b26126d8565b6124588361ffff166126d8565b6124629190613e88565b9050612472816301e285006142c4565b61247c9084613e5a565b92508061248b6107b2846142a1565b61ffff166124999190613e88565b6124a7906301e133806142c4565b6124b19084613e5a565b92505b84831115611fc3576124ca6107516001846142a1565b156124e4576124dd6301e2850084613e88565b92506124f5565b6124f26301e1338084613e88565b92505b6125006001836142a1565b91506124b4565b6040516323b872dd60e01b8152336004820152306024820152604481018290526001600160a01b038316906323b872dd90606401602060405180830381600087803b15801561255557600080fd5b505af1158015612569573d6000803e3d6000fd5b505050506040513d601f19601f8201168201806040525081019061258d9190614005565b505050565b6040516370a0823160e01b81523060048201526000908190736b175474e89094c44da98b954eedeac495271d0f906370a08231906024016108e0565b60006125d982613190565b6020015192915050565b60006125f0600483614306565b61ffff161561260157506000919050565b61260c606483614306565b61ffff161561261d57506001919050565b61262961019083614306565b61ffff161561263a57506000919050565b506001919050565b600061264c6121d2565b9050600061265942613190565b805160208201516040830151600b805494955092939192909186919061ffff861690811061268957612689613e72565b906000526020600020018360ff16815481106126a7576126a7613e72565b906000526020600020018260ff16815481106126c5576126c5613e72565b6000918252602090912001555050505050565b60006126e5600183613e88565b91506126f361019083613fdd565b6126fe606484613fdd565b612709600485613fdd565b6127139190613e88565b6109309190613e5a565b60008260ff166001148061273457508260ff166003145b8061274257508260ff166005145b8061275057508260ff166007145b8061275e57508260ff166008145b8061276c57508260ff16600a145b8061277a57508260ff16600c145b156127875750601f610930565b8260ff166004148061279c57508260ff166006145b806127aa57508260ff166009145b806127b857508260ff16600b145b156127c55750601e610930565b6127ce826125e3565b156127db5750601d610930565b50601c610930565b6000816040516020016127f691906141d9565b604051602081830303815290604052805190602001208360405160200161281d91906141d9565b6040516020818303038152906040528051906020012014905092915050565b6007818154811061169457600080fd5b6040516323b872dd60e01b8152336004820152306024820152604481018490526001600160a01b038616906323b872dd90606401602060405180830381600087803b15801561289a57600080fd5b505af11580156128ae573d6000803e3d6000fd5b505050506040513d601f19601f820116820180604052508101906128d29190614005565b5060405163095ea7b360e01b8152737a250d5630b4cf539739df2c5dacb4c659f2488d6004820152602481018490526001600160a01b0386169063095ea7b390604401602060405180830381600087803b15801561292f57600080fd5b505af1158015612943573d6000803e3d6000fd5b505050506040513d601f19601f820116820180604052508101906129679190614005565b50600061297742620186a0613e5a565b905060606001600160a01b0387166000805160206143fb83398151915214806129b657506001600160a01b0386166000805160206143fb833981519152145b15612a4857604080516002808252606082018352909160208301908036833701905050905086816000815181106129ef576129ef613e72565b60200260200101906001600160a01b031690816001600160a01b0316815250508581600181518110612a2357612a23613e72565b60200260200101906001600160a01b031690816001600160a01b031681525050612b14565b6040805160038082526080820190925290602082016060803683370190505090508681600081518110612a7d57612a7d613e72565b60200260200101906001600160a01b031690816001600160a01b0316815250506000805160206143fb83398151915281600181518110612abf57612abf613e72565b60200260200101906001600160a01b031690816001600160a01b0316815250508581600281518110612af357612af3613e72565b60200260200101906001600160a01b031690816001600160a01b0316815250505b6040516338ed173960e01b8152737a250d5630b4cf539739df2c5dacb4c659f2488d906338ed173990612b539088908890869089908990600401614022565b600060405180830381600087803b158015612b6d57600080fd5b505af1158015612b81573d6000803e3d6000fd5b505050506040513d6000823e601f3d908101601f19168201604052612ba99190810190613f41565b5050505050505050565b6000808460a001519050600085602001519050600086606001518760e00151600081518110612be457612be4613e72565b60200260200101511115612f3a576000905060006103e8868960e00151600581518110612c1357612c13613e72565b6020026020010151612c259190614327565b612c2f91906143ac565b90506103e8868960e00151600581518110612c4c57612c4c613e72565b6020026020010151612c5e9190614327565b612c6891906143ac565b871215612c8c576000838152600c60205260409020600401805460ff191660011790555b6103e8868960e00151600481518110612ca757612ca7613e72565b6020026020010151612cb99190614327565b612cc391906143ac565b90506103e8868960e00151600481518110612ce057612ce0613e72565b6020026020010151612cf29190614327565b612cfc91906143ac565b871315612da0576000848152600e602052604090206002015460e089015180516001908110612d2d57612d2d613e72565b6020026020010151612d3f91906142c4565b6000858152600e6020526040902060020154612d5b9190613e5a565b6000858152600e6020526040812080546001600160a01b0319908116825560018201805490911690556002810182905560038101829055600481018290556005015591505b6103e8868960e00151600281518110612dbb57612dbb613e72565b6020026020010151612dcd9190614327565b612dd791906143ac565b90506103e8868960e00151600281518110612df457612df4613e72565b6020026020010151612e069190614327565b612e1091906143ac565b871315612e6b576103e88860e00151600181518110612e3157612e31613e72565b6020026020010151600e600087815260200190815260200160002060020154612e5a91906142c4565b612e649190613fdd565b9150612ed4565b6000838152600c602052604090206004015460ff16612ed4576103e88860e00151600381518110612e9e57612e9e613e72565b6020026020010151600e600087815260200190815260200160002060020154612ec791906142c4565b612ed19190613fdd565b91505b7f79a40a1a82b8edd27bed9b5eb7132d02c02650e7824d81fc7d00284c778bd8b582604051612f2c918152604060208201819052600f908201526e46696e616c2042757965724765747360881b606082015260800190565b60405180910390a1506130ab565b6103e8858860e00151600281518110612f5557612f55613e72565b6020026020010151612f679190614327565b612f7191906143ac565b861315613038576000838152600e602052604090206002015460e088015180516103e89183916001908110612fa857612fa8613e72565b6020026020010151612fba91906142c4565b612fc49190613fdd565b612fce9190613e5a565b90507f79a40a1a82b8edd27bed9b5eb7132d02c02650e7824d81fc7d00284c778bd8b58160405161302b9181526040602082018190526012908201527146696e616c207570206f75742056616c756560701b606082015260800190565b60405180910390a161309f565b6000828152600c60205260409020600401805460ff19169055848760e0015160028151811061306957613069613e72565b6020026020010151600e6000868152602001908152602001600020600201546130929190613fdd565b61309c9190613fdd565b90505b60009350505050611141565b5050509392505050565b336000818152601160205260409020546001600160a01b031614806130f05750336000818152601060205260409020546001600160a01b0316145b6130f957600080fd5b336000908152600d60205260408120600101805434929061311b908490613e5a565b9091555050336000908152600d60205260409081902090517f72e8a9e162166777febe65180487a15d66a798aa00ccf3d4743743cf235fdb7b91613178918154815260018201546020820152600290910154604082015260600190565b60405180910390a1565b6000603c6111628184613fdd565b6040805160e081018252600080825260208201819052918101829052606081018290526080810182905260a0810182905260c081018290529080806131d48561241f565b61ffff1684526131e56107b26126d8565b84516131f49061ffff166126d8565b6131fe9190613e88565b915061320e826301e285006142c4565b6132189084613e5a565b9250816107b2856000015161322d91906142a1565b61ffff1661323b9190613e88565b613249906301e133806142c4565b6132539084613e5a565b92506000600191505b600c8260ff16116132c45761327582866000015161271d565b6132859060ff16620151806142c4565b9050856132928583613e5a565b11156132a65760ff821660208601526132c4565b6132b08185613e5a565b9350816132bc816143da565b92505061325c565b600191505b6132db8560200151866000015161271d565b60ff168260ff161161332a57856132f58562015180613e5a565b11156133095760ff8216604086015261332a565b6133166201518085613e5a565b935081613322816143da565b9250506132c9565b61333386611148565b60ff16606086015261334486613182565b60ff166080860152613355866121ab565b60ff1660a08601526133668661116c565b60ff1660c08601525092949350505050565b82805461338490613e9f565b90600052602060002090601f0160209004810192826133a657600085556133ec565b82601f106133bf57805160ff19168380011785556133ec565b828001600101855582156133ec579182015b828111156133ec5782518255916020019190600101906133d1565b506133f8929150613455565b5090565b8280548282559060005260206000209081019282156133ec57916020028201828111156133ec5782518255916020019190600101906133d1565b604051806101800160405280600c906020820280368337509192915050565b5b808211156133f85760008155600101613456565b60006020828403121561347c57600080fd5b5035919050565b6020808252825182820181905260009190848201906040850190845b818110156134bb5783518352928401929184019160010161349f565b50909695505050505050565b60005b838110156134e25781810151838201526020016134ca565b838111156134f1576000848401525b50505050565b6000815180845261350f8160208601602086016134c7565b601f01601f19169290920160200192915050565b60018060a01b038816815286602082015260e06040820152600061354a60e08301886134f7565b86606084015285151560808401528460a084015282810360c084015261357081856134f7565b9a9950505050505050505050565b602080825282518282018190526000919060409081850190868401855b828110156135f557815180516001600160a01b0390811686528782015116878601528581015186860152606080820151908601526080808201519086015260a0908101519085015260c0909301929085019060010161359b565b5091979650505050505050565b80356001600160a01b038116811461361957600080fd5b919050565b60008060006060848603121561363357600080fd5b61363c84613602565b925061364a60208501613602565b9150604084013590509250925092565b6000806000806080858703121561367057600080fd5b61367985613602565b935061368760208601613602565b93969395505050506040820135916060013590565b60208152600061114160208301846134f7565b634e487b7160e01b600052604160045260246000fd5b604051610100810167ffffffffffffffff811182821017156136e9576136e96136af565b60405290565b604051601f8201601f1916810167ffffffffffffffff81118282101715613718576137186136af565b604052919050565b600082601f83011261373157600080fd5b813567ffffffffffffffff81111561374b5761374b6136af565b61375e601f8201601f19166020016136ef565b81815284602083860101111561377357600080fd5b816020850160208301376000918101602001919091529392505050565b600067ffffffffffffffff8211156137aa576137aa6136af565b5060051b60200190565b600082601f8301126137c557600080fd5b813560206137da6137d583613790565b6136ef565b82815260059290921b840181019181810190868411156137f957600080fd5b8286015b8481101561381457803583529183019183016137fd565b509695505050505050565b60008060006060848603121561383457600080fd5b833567ffffffffffffffff8082111561384c57600080fd5b61385887838801613720565b9450602086013591508082111561386e57600080fd5b61387a878388016137b4565b9350604086013591508082111561389057600080fd5b5061389d86828701613720565b9150509250925092565b803561ffff8116811461361957600080fd5b803560ff8116811461361957600080fd5b600080600080600060a086880312156138e257600080fd5b6138eb866138a7565b94506138f9602087016138b9565b9350613907604087016138b9565b9250613915606087016138b9565b9150613923608087016138b9565b90509295509295909350565b600081518084526020808501945080840160005b8381101561395f57815187529582019590820190600101613943565b509495945050505050565b60006020808301818452808551808352604092508286019150828160051b87010184880160005b83811015613a4757888303603f19018552815180516001600160a01b0316845261010088820151898601528782015181898701526139d1828701826134f7565b91505060608083015181870152506080808301516139f28288018215159052565b505060a0828101519086015260c08083015186830382880152613a1583826134f7565b9250505060e08083015192508582038187015250613a33818361392f565b968901969450505090860190600101613991565b509098975050505050505050565b60008060408385031215613a6857600080fd5b50508035926020909101359150565b60008060408385031215613a8a57600080fd5b613a9383613602565b9150602083013567ffffffffffffffff811115613aaf57600080fd5b613abb85828601613720565b9150509250929050565b60008060008060808587031215613adb57600080fd5b613ae4856138a7565b9350613af2602086016138b9565b9250613b00604086016138b9565b9150613b0e606086016138b9565b905092959194509250565b600080600060608486031215613b2e57600080fd5b613b37846138a7565b9250613b45602085016138b9565b9150613b53604085016138b9565b90509250925092565b60008060008060008060c08789031215613b7557600080fd5b613b7e876138a7565b9550613b8c602088016138b9565b9450613b9a604088016138b9565b9350613ba8606088016138b9565b9250613bb6608088016138b9565b9150613bc460a088016138b9565b90509295509295509295565b60008060408385031215613be357600080fd5b613bec83613602565b946020939093013593505050565b600060208284031215613c0c57600080fd5b61114182613602565b600060208284031215613c2757600080fd5b611141826138a7565b60008060408385031215613c4357600080fd5b613c4c836138b9565b9150613c5a602084016138a7565b90509250929050565b60008060408385031215613c7657600080fd5b823567ffffffffffffffff80821115613c8e57600080fd5b613c9a86838701613720565b93506020850135915080821115613cb057600080fd5b50613abb85828601613720565b600080600080600060a08688031215613cd557600080fd5b613cde86613602565b9450613cec60208701613602565b9350604086013592506060860135915061392360808701613602565b8015158114613d1657600080fd5b50565b803561361981613d08565b600080600060608486031215613d3957600080fd5b833567ffffffffffffffff80821115613d5157600080fd5b908501906101008288031215613d6657600080fd5b613d6e6136c5565b613d7783613602565b815260208301356020820152604083013582811115613d9557600080fd5b613da189828601613720565b60408301525060608301356060820152613dbd60808401613d19565b608082015260a083013560a082015260c083013582811115613dde57600080fd5b613dea89828601613720565b60c08301525060e083013582811115613e0257600080fd5b613e0e898286016137b4565b60e083015250976020870135975060409096013595945050505050565b600060208284031215613e3d57600080fd5b5051919050565b634e487b7160e01b600052601160045260246000fd5b60008219821115613e6d57613e6d613e44565b500190565b634e487b7160e01b600052603260045260246000fd5b600082821015613e9a57613e9a613e44565b500390565b600181811c90821680613eb357607f821691505b60208210811415610ee057634e487b7160e01b600052602260045260246000fd5b6000600019821415613ee857613ee8613e44565b5060010190565b600081518084526020808501945080840160005b8381101561395f5781516001600160a01b031687529582019590820190600101613f03565b8281526040602082015260006121ca6040830184613eef565b60006020808385031215613f5457600080fd5b825167ffffffffffffffff811115613f6b57600080fd5b8301601f81018513613f7c57600080fd5b8051613f8a6137d582613790565b81815260059190911b82018301908381019087831115613fa957600080fd5b928401925b8284101561146557835182529284019290840190613fae565b634e487b7160e01b600052601260045260246000fd5b600082613fec57613fec613fc7565b500490565b60008261400057614000613fc7565b500690565b60006020828403121561401757600080fd5b815161114181613d08565b85815284602082015260a06040820152600061404160a0830186613eef565b6001600160a01b0394909416606083015250608001529392505050565b8054600090600181811c908083168061407857607f831692505b602080841082141561409a57634e487b7160e01b600052602260045260246000fd5b838852602088018280156140b557600181146140c6576140f1565b60ff198716825282820197506140f1565b60008981526020902060005b878110156140eb578154848201529086019084016140d2565b83019850505b5050505050505092915050565b6000815480845260208085019450836000528060002060005b8381101561395f57815487529582019560019182019101614117565b6020815261415c6020820161414f84546001600160a01b031690565b6001600160a01b03169052565b60018201546040820152600061010080606084015261418261012084016002860161405e565b60038501546080850152600485015460ff16151560a0850152600585015460c0850152838103601f1990810160e08601526141c0826006880161405e565b91508085830301838601525061204781600787016140fe565b600082516141eb8184602087016134c7565b9190910192915050565b602080825282546001600160a01b031690820152604080820152600061114160608301600185016140fe565b805169ffffffffffffffffffff8116811461361957600080fd5b600080600080600060a0868803121561425357600080fd5b61425c86614221565b945060208601519350604086015192506060860151915061392360808701614221565b600061ffff8083168181141561429757614297613e44565b6001019392505050565b600061ffff838116908316818110156142bc576142bc613e44565b039392505050565b60008160001904831182151516156142de576142de613e44565b500290565b600060ff821660ff8416808210156142fd576142fd613e44565b90039392505050565b600061ffff8084168061431b5761431b613fc7565b92169190910692915050565b60006001600160ff1b038184138284138082168684048611161561434d5761434d613e44565b600160ff1b600087128281168783058912161561436c5761436c613e44565b6000871292508782058712848416161561438857614388613e44565b8785058712818416161561439e5761439e613e44565b505050929093029392505050565b6000826143bb576143bb613fc7565b600160ff1b8214600019841416156143d5576143d5613e44565b500590565b600060ff821660ff8114156143f1576143f1613e44565b6001019291505056fe000000000000000000000000c02aaa39b223fe8d0a0e5c4f27ead9083c756cc2a264697066735822122031f181e6bbe3ce8f4993b75be0db91444a45eaaf66e939a5cbf687111a7d703d64736f6c63430008090033",
  "immutableReferences": {},
  "source": "pragma solidity 0.8.9;\r\n\r\nimport \"./TradeCenter.sol\";\r\n//import \"@openzeppelin/contracts/token/ERC20/extensions/ERC20Wrapper.sol\";\r\n\r\nimport \"./ERC20.sol\";\r\nimport \"./DateTime.sol\";\r\n\r\ninterface _ERC20{\r\n  function deposit() external payable;\r\n  function withdraw(uint256 amount) external;\r\n  function name() external returns (string memory);\r\n  \r\n}\r\n\r\ncontract YieldOfferings is TradeCenter, DateTime {\r\n   \r\n_ERC20 weth;  \r\n//ERC20 usdt;\r\naddress public owner = msg.sender; // contract owner\r\n // will be used in logic\r\nuint offeringCount = 0; // keep track of all number\r\nuint contractCount=1;\r\nuint walletCount=0;\r\nuint[] public MonthlyofferingIDList; // all ids list\r\nuint[] public WeeklyofferingIDList;\r\nuint[] public DailyofferingIDList;\r\naddress[] walletOwners;\r\nstring aloo = \"Bought!\";\r\nint[][][] EthPriceLog;\r\n//address WETH = 0xC02aaA39b223FE8D0A0e5C4F27eAD9083C756Cc2;\r\n\r\n//mapping (address=> bool) public hasWallet;\r\n\r\n//hasWallet[key] \r\n\r\n\r\n\r\n\r\nmapping (uint => offering) public Offerings; //mapping offerings to ids\r\nmapping (address => wallet) public walletMap;\r\nmapping(uint => offeringContract) ContractMap;\r\nmapping (string => address) CoinMap;\r\n//mapping (_DateTime => int ) EthPriceLog;\r\n\r\nstruct wallet {\r\nuint usdt;\r\nuint eth;\r\nuint weth;\r\n//uint ONEINCH;\r\n//uint WETH;\r\n}\r\n\r\nstruct buyer {\r\n    address buyerAddress;\r\n\r\n    offering[] offerings;\r\n    uint[] ContractsIds;\r\n    uint[] offeringIDList;\r\n}\r\n\r\nstruct issuer {\r\n    address issuerAddress;\r\n    //uint256 balance;\r\n    //uint256 accountPayable;\r\n    uint[] offeringsList;\r\n    //uint WalletID;\r\n    //uint[] ContractsIds;\r\n    //bool hasWallet;\r\n}\r\n\r\nmapping (address => issuer) public BuyersMap;\r\nmapping (address => issuer) internal IssuersMap;\r\n\r\n\r\n\r\nstruct offeringContract{\r\n    address buyer;\r\n    address issuer;\r\n    uint amount;\r\n    uint offeringID;\r\n    uint contractID;\r\n    int ethusdt0;\r\n}\r\n\r\n/*uint _Nb_fixings,\r\n    uint _high_coupon,\r\n    uint _high_coupon_barrier,\r\n    uint _smaller_coupon,\r\n    uint _Upoutbarrier,\r\n    uint _di_barrier, */\r\n\r\n\r\nstruct offering{\r\n    address issuer;\r\n    uint ID;\r\n    string name;\r\n    uint fixing_counter;\r\n    bool Di_barrier_activated;\r\n    uint contractID;\r\n    string fixing_duration;\r\n    uint [] attributes;\r\n}\r\n\r\n\r\nevent logAddedOffering(offering);\r\nevent getContract (offeringContract);\r\nevent getIssuer (issuer);\r\nevent getWalletInfo(wallet);\r\n// function to add a new offering \r\n\r\nconstructor () public {\r\n\r\n    weth = _ERC20 (WETH);\r\n    //usdt = ERC20 (0xdAC17F958D2ee523a2206206994597C13D831ec7);\r\n}\r\n\r\nfunction SignInIssuer () public  {\r\nrequire(IssuersMap[msg.sender].issuerAddress==0x0000000000000000000000000000000000000000, \"Already Signed in as Issuer!\" );\r\n/*struct issuer {\r\n    address issuerAddress;\r\n    offering[] offerings;\r\n    uint[] ContractsIds;\r\n}*/\r\nwalletMap[msg.sender] = wallet (\r\n0,\r\n0,\r\n0\r\n);\r\nwalletCount = walletCount+1;\r\n\r\nuint[] memory offeringEmptyList;\r\nIssuersMap[msg.sender] = issuer(\r\nmsg.sender,\r\nofferingEmptyList\r\n);\r\n\r\n\r\n\r\nemit getIssuer(IssuersMap[msg.sender]);\r\n\r\n}\r\n\r\nfunction supportCoin(address CoinAddress, string memory CoinName) public {\r\nrequire(msg.sender == owner);\r\nCoinMap[CoinName] = CoinAddress;\r\n\r\n}\r\n\r\nfunction compareStrings(string memory a, string memory b) public view returns (bool) {\r\n    return (keccak256(abi.encodePacked((a))) == keccak256(abi.encodePacked((b))));\r\n}\r\n\r\nfunction addOfferingList(string memory _name,uint[] memory input, string memory fixing_duration)public{\r\nrequire(IssuersMap[msg.sender].issuerAddress==msg.sender, \"Please Sign In as Issuer\" );\r\nrequire(bytes(_name).length>0, \"name cannot beval empty\");\r\nrequire(compareStrings(fixing_duration, \"weekly\") || compareStrings(fixing_duration, \"monthly\") || (compareStrings(fixing_duration, \"daily\") ) == true   );\r\n\r\n/*\r\nstruct offering{\r\n    address issuer;\r\n    uint ID;\r\n    string name;\r\n    uint fixing_counter;\r\n    bool Di_barrier_activated;\r\n    uint contractID;\r\n    string fixing_duration;\r\n    uint [] attributes;\r\n} */\r\n\r\n\r\n    uint newID= offeringCount + 1;\r\n    if (compareStrings(fixing_duration, \"weekly\") )\r\n    {WeeklyofferingIDList.push(newID);}\r\n    else if (compareStrings(fixing_duration, \"monthly\") )\r\n    {MonthlyofferingIDList.push(newID);}\r\n    else {DailyofferingIDList.push(newID);}\r\n\r\n    uint  contractID;\r\n    Offerings[newID] = offering(msg.sender, \r\n     newID, \r\n     _name,\r\n     0,\r\n     false,\r\n     0,\r\n    fixing_duration,\r\n    input);\r\n    \r\n    offeringCount+= 1;\r\n\r\n    emit logAddedOffering(Offerings[newID]);\r\n}\r\n\r\n\r\n/*function addOffering(\r\n    string memory _name,\r\n    uint _Nb_fixings,\r\n    uint _high_coupon,\r\n    uint _high_coupon_barrier,\r\n    uint _smaller_coupon,\r\n    uint _Upoutbarrier,\r\n    uint _di_barrier,\r\n    string memory fixing_duration\r\n    \r\n   ) public{\r\n    require(IssuersMap[msg.sender].issuerAddress==msg.sender, \"Please Sign In as Issuer\" );\r\n    require(bytes(_name).length>0, \"name cannot beval empty\");\r\n    //require(IssuersMap[msg.sender].issuerAddress, msg.sender);\r\n\r\n    uint newID= offeringCount + 1;\r\n    //offeringContract[] storage emptyList;\r\n    //newCampaign.deadline= block.timestamp + (_duration * 1 days);\r\n    offeringIDList.push(newID);\r\n    uint  contractID;\r\n    Offerings[newID] = offering(msg.sender, \r\n     newID, \r\n     _name,\r\n     _Nb_fixings,\r\n     0,\r\n     _high_coupon,\r\n     _high_coupon_barrier,\r\n     _smaller_coupon,\r\n     _Upoutbarrier,\r\n     _di_barrier,\r\n      false,\r\n    contractID,\r\n    fixing_duration);\r\n    \r\n    offeringCount+= 1;\r\n\r\n    \r\n    emit logAddedOffering(Offerings[newID]);\r\n}*/\r\n\r\n\r\n\r\nfunction WeeklyofferingsLoader(int usdtPrice, int ethusdt0) public returns(uint) {\r\n\r\nuint buyerGets;\r\nfor (uint i = 0 ; i< WeeklyofferingIDList.length ; i++)\r\n{\r\nbuyerGets = handleFixing(Offerings[ WeeklyofferingIDList[i]], usdtPrice, ethusdt0);\r\n}\r\n//emit gets(buyerGets);\r\nreturn buyerGets;\r\n}\r\n\r\n/*function DailyofferingsLoader() external {\r\n\r\n\r\nfor (uint i = 0 ; i< DailyofferingIDList.length ; i++)\r\n{\r\nhandleFixing(Offerings[ DailyofferingIDList[i]]);\r\n}\r\n\r\n}\r\n\r\nfunction MonthlyofferingsLoader() external {\r\n\r\n\r\nfor (uint i = 0 ; i< MonthlyofferingIDList.length ; i++)\r\n{\r\nhandleFixing(Offerings[ MonthlyofferingIDList[i]]);\r\n}\r\n\r\n}\r\n*/\r\n\r\n\r\n\r\n\r\nevent gets(int, string);\r\nevent uintgetter (uint , string);\r\nfunction handleFixing (offering memory Offering, int usdtPrice , int ethusdt0) public returns (uint) {  //buis logic;\r\n\r\n//emit logAddedOffering(Offering);\r\nuint  contractID = Offering.contractID;\r\nuint ID = Offering.ID;\r\n//emit uintgetter(contractID, \"ContractID\");\r\n//int usdtPrice = getLatestPrice();\r\n//int ethusdt0 = ContractMap[contractID].ethusdt0;\r\n\r\n\r\n\r\n/*uint _Nb_fixings, 0\r\n    uint _high_coupon,1\r\n    uint _high_coupon_barrier,2\r\n    uint _smaller_coupon,3\r\n    uint _Upoutbarrier,4\r\n    uint _di_barrier, 5*/\r\nuint buyerGets ;\r\n   \r\nif (Offering.attributes[0] > Offering.fixing_counter){//normal fixing logic\r\n\r\n  \r\n  buyerGets = 0;\r\n  \r\nint cond = int((int(Offering.attributes[5])* ethusdt0 /1000 ));  \r\n//emit gets(cond, \"Condition 1\");\r\n//1800< 1500 NO\r\n\r\n  if (usdtPrice < int((int(Offering.attributes[5])* ethusdt0 /1000 ))){\r\n    Offerings[ID].Di_barrier_activated=true;\r\n    }\r\n\r\n\r\n\r\n\r\ncond = int (int (Offering.attributes[4])*ethusdt0 /1000) ; \r\n//emit gets(cond, \"Condition 2 \");\r\n// 1800> 3000 ?\r\nif(usdtPrice > int (int (Offering.attributes[4])*ethusdt0 /1000)){\r\n            \r\n            \r\n                buyerGets = ContractMap[contractID].amount + Offering.attributes[1]*ContractMap[contractID].amount;\r\n                //emit uintgetter(buyerGets, \"Condition 2 buyerGets\");\r\n                EndContract( contractID );\r\n\r\n        }\r\n\r\n\r\n//1800> 2250\r\ncond = int (Offering.attributes[2]) * ethusdt0 / 1000;\r\n//emit gets(cond , \"Cond 3\");\r\n\r\n if (usdtPrice > int (Offering.attributes[2]) * ethusdt0 / 1000){\r\n\r\nbuyerGets = ContractMap[contractID].amount * Offering.attributes[1]/1000;\r\n//emit uintgetter(buyerGets, \"Cond 3 BuyerGets\");\r\n\r\n}\r\n\r\n\r\n\r\n else if (Offerings[ID].Di_barrier_activated==false){\r\n     //emit uintgetter(Offering.attributes[3], \"Attributes[3]\");\r\n     //emit uintgetter(ContractMap[contractID].amount, \"ammount\");\r\n    buyerGets = ContractMap[contractID].amount * Offering.attributes[3]/1000 ;\r\n    //emit uintgetter(buyerGets , \"Cond 4 BuyerGets\");\r\n}\r\n\r\n\r\n\r\nemit uintgetter(buyerGets , \"Final BuyerGets\");\r\n//inside normal fixings\r\n}\r\n\r\n\r\nelse {\r\n\r\nif (usdtPrice >int (int ( Offering.attributes[2]) * ethusdt0 /1000)){\r\n\r\nbuyerGets = Offering. attributes[1] * ContractMap[contractID].amount /1000 + ContractMap[contractID].amount;\r\nemit uintgetter(buyerGets, \"Final up out Value\");\r\n\r\n\r\n}\r\n\r\nelse if (Offerings[ID].Di_barrier_activated= false){\r\n\r\nbuyerGets = Offering.attributes[3] * ContractMap[contractID].amount / 1000 + ContractMap[contractID].amount;\r\nemit uintgetter(buyerGets, \"Final Value\");\r\n\r\n}\r\n\r\nelse {\r\n\r\n    buyerGets =uint ( ContractMap[contractID].amount) / uint (Offering.attributes[2]) / uint (ethusdt0) ;\r\n}\r\n\r\n//ContractMap [contractID].buyer.call{value : buyerGets}(\"\");\r\nreturn 0;\r\n\r\n}\r\n\r\n\r\n\r\n}\r\n\r\nfunction EndContract ( uint contractID) internal{\r\n\r\ndelete ContractMap[contractID];\r\n\r\n}\r\n\r\n\r\nfunction depositToWallet () public payable {\r\nrequire(IssuersMap[msg.sender].issuerAddress==msg.sender || BuyersMap[msg.sender].issuerAddress==msg.sender);\r\n\r\nwalletMap[msg.sender].eth += msg.value;\r\n\r\nemit getWalletInfo(walletMap[msg.sender]);\r\n\r\n}\r\n\r\nevent getAmounts(uint[]);\r\n\r\nfunction swapETHFromBuiltInWallet (uint amount)public returns(uint [] memory) {\r\n\r\nrequire(walletMap[msg.sender].eth >= amount);\r\nuint deadline = block.timestamp + 100;\r\n    address[] memory path = new address[](2);\r\n    path[0] = WETH;\r\n    path[1] = 0xdAC17F958D2ee523a2206206994597C13D831ec7;\r\n\r\n//WETH.call{value : amount}(\"\");\r\nweth.deposit{value : amount}();\r\n\r\nuint amount_min =  getAmountOutMin(WETH, 0x6B175474E89094C44Da98b954EedeAC495271d0F , amount);\r\nuint [] memory amounts = simpleswap(WETH, 0x6B175474E89094C44Da98b954EedeAC495271d0F, amount, amount_min);\r\n\r\nemit getAmounts(amounts);\r\nwalletMap[msg.sender]. usdt += amounts[1];\r\nwalletMap[msg.sender] .eth -= amount;\r\n\r\n//IUniswapV2Router(UNISWAP_V2_ROUTER).swapExactETHForTokens {value : amount} (0,path,address(this),deadline);\r\nemit getWalletInfo(walletMap[msg.sender]);\r\nreturn amounts;\r\n}\r\n\r\n\r\n\r\nfunction buyOffering(uint _id) public payable returns(string memory) {\r\n    //require (Offerings[_id].contractID == 0);\r\n\r\n/*struct offeringContract{\r\n    address buy\r\n    address issuer;\r\n    uint amount;\r\n    uint offeringID;\r\n    uint contractID;\r\n}*/\r\n\r\n\r\nuint buyTimestamp = block.timestamp;\r\nint ethusdt0 = getLatestPrice();\r\nContractMap[contractCount] = offeringContract(\r\n    msg.sender,\r\n    Offerings[_id].issuer,\r\n    msg.value,\r\n    _id,\r\n    contractCount,\r\n    ethusdt0\r\n\r\n);\r\nOfferings[_id]. contractID = contractCount;\r\n//emit getContract(ContractMap[contractCount].buyer,ContractMap[contractCount].issuer,ContractMap[contractCount].amount,ContractMap[contractCount].offeringID,ContractMap[contractCount].contractID);\r\nemit getContract(ContractMap[contractCount]);\r\ncontractCount+=1;\r\n\r\nwalletMap [Offerings[_id].issuer] . eth = msg.value ;\r\n\r\n\r\n//emit getWalletInfo (walletMap [Offerings[_id].issuer]);\r\n//Offerings[_id]. contractList . append()\r\n\r\nreturn aloo;\r\n\r\n}\r\n/*\r\nfunction checkCustody(address _issuer, uint tbs) public returns(bool){\r\n    bool isAllowed= false;\r\n    uint256 issuerBalance= _issuer.balance;\r\n    //check all linked offerings to issuer\r\n\r\n}*/\r\n\r\n\r\n\r\n\r\nfunction getCount() public view returns(uint count) {\r\n    return WeeklyofferingIDList.length;\r\n}\r\n\r\nfunction getContractCount() public view returns (uint count){\r\n\r\nreturn contractCount;\r\n\r\n}\r\n\r\nfunction getContractETH () public view returns (uint){\r\n\r\nreturn address(this).balance;\r\n    \r\n}\r\n\r\nfunction getOfferings () public view returns (offering[] memory){\r\n\r\noffering[] memory toReturn= new offering[](offeringCount) ;\r\n\r\nfor (uint i = 0 ; i< offeringCount ; i++){\r\n\r\ntoReturn [i] = Offerings[i+1];\r\n\r\n}\r\n\r\nreturn  toReturn; //mapping offerings to ids\r\n\r\n}\r\n\r\n\r\nfunction getAllContracts() public view returns (offeringContract[] memory){\r\n\r\nofferingContract[] memory toReturn= new offeringContract[](contractCount) ;\r\n\r\nfor (uint i = 0 ; i< contractCount ; i++){\r\n\r\ntoReturn [i] = ContractMap[i];\r\n\r\n}\r\n\r\nreturn  toReturn; //mapping offerings to ids\r\n\r\n\r\n}\r\n\r\n\r\nfunction getDayFromTimeStamp() public view returns (uint8) {\r\n\r\nreturn parseTimestamp(block.timestamp).day;\r\n}\r\n\r\nfunction fillPriceLog () public {\r\n\r\nint price = getLatestPrice();\r\n\r\n_DateTime memory key = parseTimestamp(block.timestamp);\r\n\r\nuint16 year =  key.year;\r\nuint8 month =  key.month;\r\nuint8 day =  key.day;\r\n\r\n\r\nEthPriceLog [year][month][day] = price;\r\n  }\r\n\r\n\r\n  function getWallet() public view returns(wallet memory) {\r\n      return walletMap[msg.sender];\r\n\r\n  }\r\n\r\n\r\n\r\n\r\n// contract's brace\r\n}\r\n\r\n\r\n",
  "sourcePath": "D:\\projects\\Bounty_1_truffle\\contracts\\YieldOfferings.sol",
  "compiler": {
    "name": "solc",
    "version": "0.8.9+commit.e5eed63a.Emscripten.clang"
  },
  "schemaVersion": "3.4.5",
  "updatedAt": "2022-03-25T12:14:40.106Z",
  "networkType": "ethereum",
  "devdoc": {
    "kind": "dev",
    "methods": {},
    "version": 1
  },
  "userdoc": {
    "kind": "user",
    "methods": {
      "getLatestPrice()": {
        "notice": "Returns the latest price"
      }
    },
    "version": 1
  }
}